{
  "contractName": "RoleBasedAccessControl",
  "abi": [
    {
      "inputs": [
        {
          "internalType": "address",
          "name": "_superAdmin",
          "type": "address"
        }
      ],
      "stateMutability": "nonpayable",
      "type": "constructor"
    },
    {
      "anonymous": false,
      "inputs": [
        {
          "indexed": false,
          "internalType": "address",
          "name": "patient",
          "type": "address"
        },
        {
          "indexed": false,
          "internalType": "address",
          "name": "doctor",
          "type": "address"
        }
      ],
      "name": "AccessGranted",
      "type": "event"
    },
    {
      "anonymous": false,
      "inputs": [
        {
          "indexed": false,
          "internalType": "address",
          "name": "patient",
          "type": "address"
        },
        {
          "indexed": false,
          "internalType": "address",
          "name": "doctor",
          "type": "address"
        }
      ],
      "name": "AccessRequested",
      "type": "event"
    },
    {
      "anonymous": false,
      "inputs": [
        {
          "indexed": false,
          "internalType": "address",
          "name": "patient",
          "type": "address"
        },
        {
          "indexed": false,
          "internalType": "address",
          "name": "doctor",
          "type": "address"
        }
      ],
      "name": "AccessRevoked",
      "type": "event"
    },
    {
      "anonymous": false,
      "inputs": [
        {
          "indexed": false,
          "internalType": "string",
          "name": "message",
          "type": "string"
        }
      ],
      "name": "ActionPerformed",
      "type": "event"
    },
    {
      "anonymous": false,
      "inputs": [
        {
          "indexed": false,
          "internalType": "string",
          "name": "cid",
          "type": "string"
        },
        {
          "indexed": false,
          "internalType": "string",
          "name": "publicKey",
          "type": "string"
        }
      ],
      "name": "CIDMapped",
      "type": "event"
    },
    {
      "anonymous": false,
      "inputs": [
        {
          "indexed": false,
          "internalType": "address",
          "name": "publicKey",
          "type": "address"
        },
        {
          "indexed": false,
          "internalType": "uint8",
          "name": "slot",
          "type": "uint8"
        },
        {
          "indexed": false,
          "internalType": "string",
          "name": "ipfsCID",
          "type": "string"
        }
      ],
      "name": "IPFSCIDMapped",
      "type": "event"
    },
    {
      "anonymous": false,
      "inputs": [
        {
          "indexed": false,
          "internalType": "address",
          "name": "patient",
          "type": "address"
        },
        {
          "indexed": false,
          "internalType": "address",
          "name": "doctor",
          "type": "address"
        }
      ],
      "name": "WriteAccessGranted",
      "type": "event"
    },
    {
      "anonymous": false,
      "inputs": [
        {
          "indexed": false,
          "internalType": "address",
          "name": "patient",
          "type": "address"
        },
        {
          "indexed": false,
          "internalType": "address",
          "name": "doctor",
          "type": "address"
        }
      ],
      "name": "WriteAccessRequested",
      "type": "event"
    },
    {
      "anonymous": false,
      "inputs": [
        {
          "indexed": false,
          "internalType": "address",
          "name": "patient",
          "type": "address"
        },
        {
          "indexed": false,
          "internalType": "address",
          "name": "doctor",
          "type": "address"
        }
      ],
      "name": "WriteAccessRevoked",
      "type": "event"
    },
    {
      "inputs": [
        {
          "internalType": "address",
          "name": "",
          "type": "address"
        },
        {
          "internalType": "uint256",
          "name": "",
          "type": "uint256"
        }
      ],
      "name": "accessRequests",
      "outputs": [
        {
          "internalType": "address",
          "name": "doctor",
          "type": "address"
        },
        {
          "internalType": "bool",
          "name": "approved",
          "type": "bool"
        }
      ],
      "stateMutability": "view",
      "type": "function",
      "constant": true
    },
    {
      "inputs": [
        {
          "internalType": "address",
          "name": "",
          "type": "address"
        },
        {
          "internalType": "uint256",
          "name": "",
          "type": "uint256"
        }
      ],
      "name": "accessWriteRequests",
      "outputs": [
        {
          "internalType": "address",
          "name": "doctor",
          "type": "address"
        },
        {
          "internalType": "bool",
          "name": "approved",
          "type": "bool"
        }
      ],
      "stateMutability": "view",
      "type": "function",
      "constant": true
    },
    {
      "inputs": [
        {
          "internalType": "address",
          "name": "",
          "type": "address"
        }
      ],
      "name": "addressToCID",
      "outputs": [
        {
          "internalType": "string",
          "name": "",
          "type": "string"
        }
      ],
      "stateMutability": "view",
      "type": "function",
      "constant": true
    },
    {
      "inputs": [
        {
          "internalType": "address",
          "name": "",
          "type": "address"
        }
      ],
      "name": "hasRole",
      "outputs": [
        {
          "internalType": "bool",
          "name": "",
          "type": "bool"
        }
      ],
      "stateMutability": "view",
      "type": "function",
      "constant": true
    },
    {
      "inputs": [
        {
          "internalType": "address",
          "name": "",
          "type": "address"
        },
        {
          "internalType": "uint256",
          "name": "",
          "type": "uint256"
        }
      ],
      "name": "patientDataHistory",
      "outputs": [
        {
          "internalType": "string",
          "name": "",
          "type": "string"
        }
      ],
      "stateMutability": "view",
      "type": "function",
      "constant": true
    },
    {
      "inputs": [
        {
          "internalType": "address",
          "name": "",
          "type": "address"
        },
        {
          "internalType": "uint8",
          "name": "",
          "type": "uint8"
        },
        {
          "internalType": "uint256",
          "name": "",
          "type": "uint256"
        }
      ],
      "name": "publicKeyToIPFSCIDs",
      "outputs": [
        {
          "internalType": "string",
          "name": "",
          "type": "string"
        }
      ],
      "stateMutability": "view",
      "type": "function",
      "constant": true
    },
    {
      "inputs": [
        {
          "internalType": "address",
          "name": "",
          "type": "address"
        }
      ],
      "name": "roles",
      "outputs": [
        {
          "internalType": "enum RoleBasedAccessControl.Role",
          "name": "",
          "type": "uint8"
        }
      ],
      "stateMutability": "view",
      "type": "function",
      "constant": true
    },
    {
      "inputs": [],
      "name": "superAdmin",
      "outputs": [
        {
          "internalType": "address",
          "name": "",
          "type": "address"
        }
      ],
      "stateMutability": "view",
      "type": "function",
      "constant": true
    },
    {
      "inputs": [
        {
          "internalType": "address",
          "name": "",
          "type": "address"
        },
        {
          "internalType": "uint256",
          "name": "",
          "type": "uint256"
        }
      ],
      "name": "temporaryIPFSCIDs",
      "outputs": [
        {
          "internalType": "address",
          "name": "publicKey",
          "type": "address"
        },
        {
          "internalType": "uint8",
          "name": "slot",
          "type": "uint8"
        },
        {
          "internalType": "string",
          "name": "ipfsCID",
          "type": "string"
        }
      ],
      "stateMutability": "view",
      "type": "function",
      "constant": true
    },
    {
      "inputs": [
        {
          "internalType": "string",
          "name": "cid",
          "type": "string"
        },
        {
          "internalType": "address",
          "name": "publicKey",
          "type": "address"
        }
      ],
      "name": "keepcid",
      "outputs": [],
      "stateMutability": "nonpayable",
      "type": "function"
    },
    {
      "inputs": [
        {
          "internalType": "address",
          "name": "_user",
          "type": "address"
        }
      ],
      "name": "getCIDByAddress",
      "outputs": [
        {
          "internalType": "string",
          "name": "",
          "type": "string"
        }
      ],
      "stateMutability": "view",
      "type": "function",
      "constant": true
    },
    {
      "inputs": [
        {
          "internalType": "address",
          "name": "_user",
          "type": "address"
        },
        {
          "internalType": "enum RoleBasedAccessControl.Role",
          "name": "_role",
          "type": "uint8"
        }
      ],
      "name": "assignRole",
      "outputs": [],
      "stateMutability": "nonpayable",
      "type": "function"
    },
    {
      "inputs": [],
      "name": "performActionAsDoctor",
      "outputs": [],
      "stateMutability": "nonpayable",
      "type": "function"
    },
    {
      "inputs": [],
      "name": "performAdminTask",
      "outputs": [],
      "stateMutability": "nonpayable",
      "type": "function"
    },
    {
      "inputs": [],
      "name": "performSuperAdminTask",
      "outputs": [
        {
          "internalType": "string",
          "name": "",
          "type": "string"
        }
      ],
      "stateMutability": "view",
      "type": "function",
      "constant": true
    },
    {
      "inputs": [
        {
          "internalType": "address",
          "name": "_user",
          "type": "address"
        }
      ],
      "name": "removeAdminD",
      "outputs": [],
      "stateMutability": "nonpayable",
      "type": "function"
    },
    {
      "inputs": [
        {
          "internalType": "address",
          "name": "_user",
          "type": "address"
        }
      ],
      "name": "removeAdminI",
      "outputs": [],
      "stateMutability": "nonpayable",
      "type": "function"
    },
    {
      "inputs": [
        {
          "internalType": "address",
          "name": "_user",
          "type": "address"
        }
      ],
      "name": "removeInsurance",
      "outputs": [],
      "stateMutability": "nonpayable",
      "type": "function"
    },
    {
      "inputs": [
        {
          "internalType": "address",
          "name": "_user",
          "type": "address"
        }
      ],
      "name": "removeDoctor",
      "outputs": [],
      "stateMutability": "nonpayable",
      "type": "function"
    },
    {
      "inputs": [
        {
          "internalType": "address[]",
          "name": "addresses",
          "type": "address[]"
        }
      ],
      "name": "getCIDsByAddresses",
      "outputs": [
        {
          "internalType": "string[]",
          "name": "",
          "type": "string[]"
        }
      ],
      "stateMutability": "view",
      "type": "function",
      "constant": true
    },
    {
      "inputs": [],
      "name": "getAllAdminDCIDs",
      "outputs": [
        {
          "internalType": "string[]",
          "name": "",
          "type": "string[]"
        }
      ],
      "stateMutability": "view",
      "type": "function",
      "constant": true
    },
    {
      "inputs": [],
      "name": "getAllAdminICIDs",
      "outputs": [
        {
          "internalType": "string[]",
          "name": "",
          "type": "string[]"
        }
      ],
      "stateMutability": "view",
      "type": "function",
      "constant": true
    },
    {
      "inputs": [],
      "name": "getAllDoctorCIDs",
      "outputs": [
        {
          "internalType": "string[]",
          "name": "",
          "type": "string[]"
        }
      ],
      "stateMutability": "view",
      "type": "function",
      "constant": true
    },
    {
      "inputs": [],
      "name": "getAllInsuranceCIDs",
      "outputs": [
        {
          "internalType": "string[]",
          "name": "",
          "type": "string[]"
        }
      ],
      "stateMutability": "view",
      "type": "function",
      "constant": true
    },
    {
      "inputs": [],
      "name": "getSuperAdmins",
      "outputs": [
        {
          "internalType": "address",
          "name": "",
          "type": "address"
        }
      ],
      "stateMutability": "view",
      "type": "function",
      "constant": true
    },
    {
      "inputs": [
        {
          "internalType": "address",
          "name": "publicKey",
          "type": "address"
        },
        {
          "internalType": "uint8",
          "name": "slot",
          "type": "uint8"
        },
        {
          "internalType": "string",
          "name": "ipfsCID",
          "type": "string"
        }
      ],
      "name": "keepIPFSCID",
      "outputs": [],
      "stateMutability": "nonpayable",
      "type": "function"
    },
    {
      "inputs": [
        {
          "internalType": "address",
          "name": "publicKey",
          "type": "address"
        },
        {
          "internalType": "uint8",
          "name": "slot",
          "type": "uint8"
        },
        {
          "internalType": "string",
          "name": "ipfsCID",
          "type": "string"
        }
      ],
      "name": "requestKeepIPFSCID",
      "outputs": [],
      "stateMutability": "nonpayable",
      "type": "function"
    },
    {
      "inputs": [
        {
          "internalType": "address",
          "name": "doctor",
          "type": "address"
        },
        {
          "internalType": "uint256",
          "name": "index",
          "type": "uint256"
        }
      ],
      "name": "approveTempIPFSCID",
      "outputs": [],
      "stateMutability": "nonpayable",
      "type": "function"
    },
    {
      "inputs": [
        {
          "internalType": "address",
          "name": "publicKey",
          "type": "address"
        },
        {
          "internalType": "uint8",
          "name": "slot",
          "type": "uint8"
        }
      ],
      "name": "getIPFSCIDsByPublicKeyAndSlot",
      "outputs": [
        {
          "internalType": "string[]",
          "name": "",
          "type": "string[]"
        }
      ],
      "stateMutability": "view",
      "type": "function",
      "constant": true
    },
    {
      "inputs": [
        {
          "internalType": "address",
          "name": "publicKey",
          "type": "address"
        },
        {
          "internalType": "uint8",
          "name": "slot",
          "type": "uint8"
        }
      ],
      "name": "getLastIPFSCIDsByPublicKeyAndSlot",
      "outputs": [
        {
          "internalType": "string",
          "name": "",
          "type": "string"
        }
      ],
      "stateMutability": "view",
      "type": "function",
      "constant": true
    },
    {
      "inputs": [
        {
          "internalType": "address",
          "name": "patient",
          "type": "address"
        }
      ],
      "name": "requestAccess",
      "outputs": [],
      "stateMutability": "nonpayable",
      "type": "function"
    },
    {
      "inputs": [
        {
          "internalType": "address",
          "name": "doctor",
          "type": "address"
        }
      ],
      "name": "grantAccess",
      "outputs": [],
      "stateMutability": "nonpayable",
      "type": "function"
    },
    {
      "inputs": [
        {
          "internalType": "address",
          "name": "doctor",
          "type": "address"
        }
      ],
      "name": "revokeAccess",
      "outputs": [],
      "stateMutability": "nonpayable",
      "type": "function"
    },
    {
      "inputs": [
        {
          "internalType": "address",
          "name": "patient",
          "type": "address"
        },
        {
          "internalType": "address",
          "name": "doctor",
          "type": "address"
        }
      ],
      "name": "hasAccessRead",
      "outputs": [
        {
          "internalType": "bool",
          "name": "",
          "type": "bool"
        }
      ],
      "stateMutability": "view",
      "type": "function",
      "constant": true
    },
    {
      "inputs": [
        {
          "internalType": "address",
          "name": "patient",
          "type": "address"
        },
        {
          "internalType": "address",
          "name": "doctor",
          "type": "address"
        }
      ],
      "name": "hasAccessWrite",
      "outputs": [
        {
          "internalType": "bool",
          "name": "",
          "type": "bool"
        }
      ],
      "stateMutability": "view",
      "type": "function",
      "constant": true
    },
    {
      "inputs": [
        {
          "internalType": "address",
          "name": "patient",
          "type": "address"
        }
      ],
      "name": "requestWriteAccess",
      "outputs": [],
      "stateMutability": "nonpayable",
      "type": "function"
    },
    {
      "inputs": [
        {
          "internalType": "address",
          "name": "doctor",
          "type": "address"
        }
      ],
      "name": "grantWriteAccess",
      "outputs": [],
      "stateMutability": "nonpayable",
      "type": "function"
    },
    {
      "inputs": [
        {
          "internalType": "address",
          "name": "doctor",
          "type": "address"
        }
      ],
      "name": "revokeWriteAccess",
      "outputs": [],
      "stateMutability": "nonpayable",
      "type": "function"
    },
    {
      "inputs": [],
      "name": "getAccessRequests",
      "outputs": [
        {
          "components": [
            {
              "internalType": "address",
              "name": "doctor",
              "type": "address"
            },
            {
              "internalType": "bool",
              "name": "approved",
              "type": "bool"
            }
          ],
          "internalType": "struct RoleBasedAccessControl.AccessRequest[]",
          "name": "",
          "type": "tuple[]"
        }
      ],
      "stateMutability": "view",
      "type": "function",
      "constant": true
    },
    {
      "inputs": [],
      "name": "getWriteAccessRequests",
      "outputs": [
        {
          "components": [
            {
              "internalType": "address",
              "name": "doctor",
              "type": "address"
            },
            {
              "internalType": "bool",
              "name": "approved",
              "type": "bool"
            }
          ],
          "internalType": "struct RoleBasedAccessControl.AccessWriteRequest[]",
          "name": "",
          "type": "tuple[]"
        }
      ],
      "stateMutability": "view",
      "type": "function",
      "constant": true
    }
  ],
  "bytecode": "0x608060405234801562000010575f80fd5b5060405162005e1738038062005e1783398181016040528101906200003691906200019d565b8060065f6101000a81548173ffffffffffffffffffffffffffffffffffffffff021916908373ffffffffffffffffffffffffffffffffffffffff16021790555060045f808373ffffffffffffffffffffffffffffffffffffffff1673ffffffffffffffffffffffffffffffffffffffff1681526020019081526020015f205f6101000a81548160ff02191690836005811115620000d857620000d7620001cd565b5b02179055506001805f8373ffffffffffffffffffffffffffffffffffffffff1673ffffffffffffffffffffffffffffffffffffffff1681526020019081526020015f205f6101000a81548160ff02191690831515021790555050620001fa565b5f80fd5b5f73ffffffffffffffffffffffffffffffffffffffff82169050919050565b5f62000167826200013c565b9050919050565b62000179816200015b565b811462000184575f80fd5b50565b5f8151905062000197816200016e565b92915050565b5f60208284031215620001b557620001b462000138565b5b5f620001c48482850162000187565b91505092915050565b7f4e487b71000000000000000000000000000000000000000000000000000000005f52602160045260245ffd5b615c0f80620002085f395ff3fe608060405234801561000f575f80fd5b5060043610610246575f3560e01c80637ef09bca11610139578063aff9f1d9116100b6578063d5c56a1c1161007a578063d5c56a1c146106ea578063e4e767531461071a578063e5a362cd14610738578063e5a5e6fe14610768578063ff62d2461461078457610246565b8063aff9f1d914610633578063b240e15b1461064f578063ceb6a10e1461066b578063cfbe856b1461069b578063d496cdd6146106cc57610246565b806398fc90e9116100fd57806398fc90e91461059357806399374642146105af578063a0d4109c146105df578063acd58a7c146105fb578063ae460d7e1461061757610246565b80637ef09bca1461050357806381af8af314610533578063843d50ca1461056357806385e685311461056d5780639677f5d71461058957610246565b806323503f2b116101c75780635269a5541161018b5780635269a5541461045d57806355b63a941461047b57806361da424f14610499578063630a195b146104c95780636c7a9249146104e557610246565b806323503f2b146103b557806329575f6a146103d357806338f9b66a146103f15780633fa775fb1461040f578063508396b51461044157610246565b80630d75903d1161020e5780630d75903d146102ea5780630d77e61114610308578063120fa9ce1461033857806312c48710146103685780631e7b30111461038457610246565b8063022cb2711461024a57806308e47640146102665780630ae5e739146102965780630af7fb14146102b25780630c3ca3f7146102ce575b5f80fd5b610264600480360381019061025f9190614668565b6107b4565b005b610280600480360381019061027b91906146fc565b610a88565b60405161028d91906147d6565b60405180910390f35b6102b060048036038101906102ab9190614668565b610b44565b005b6102cc60048036038101906102c79190614922565b610cfe565b005b6102e860048036038101906102e39190614668565b610f42565b005b6102f2611108565b6040516102ff9190614a91565b60405180910390f35b610322600480360381019061031d9190614ab1565b61119b565b60405161032f91906147d6565b60405180910390f35b610352600480360381019061034d9190614bb3565b61140f565b60405161035f9190614a91565b60405180910390f35b610382600480360381019061037d9190614668565b611587565b005b61039e60048036038101906103999190614bfa565b61174d565b6040516103ac929190614c61565b60405180910390f35b6103bd6117ae565b6040516103ca9190614a91565b60405180910390f35b6103db611841565b6040516103e89190614c88565b60405180910390f35b6103f9611866565b60405161040691906147d6565b60405180910390f35b61042960048036038101906104249190614bfa565b6119dd565b60405161043893929190614cb0565b60405180910390f35b61045b60048036038101906104569190614922565b611ace565b005b610465611d68565b6040516104729190614a91565b60405180910390f35b610483611dfb565b6040516104909190614ddf565b60405180910390f35b6104b360048036038101906104ae9190614ab1565b611efc565b6040516104c09190614a91565b60405180910390f35b6104e360048036038101906104de9190614e22565b612139565b005b6104ed6126b5565b6040516104fa9190614c88565b60405180910390f35b61051d60048036038101906105189190614668565b6126dd565b60405161052a9190614e60565b60405180910390f35b61054d60048036038101906105489190614668565b6126fa565b60405161055a91906147d6565b60405180910390f35b61056b612795565b005b61058760048036038101906105829190614668565b612906565b005b610591612b88565b005b6105ad60048036038101906105a89190614668565b612cf8565b005b6105c960048036038101906105c49190614668565b612ebd565b6040516105d69190614eec565b60405180910390f35b6105f960048036038101906105f49190614668565b612ed9565b005b61061560048036038101906106109190614f05565b6131ad565b005b610631600480360381019061062c9190614668565b6131fc565b005b61064d60048036038101906106489190614668565b6133c2565b005b61066960048036038101906106649190614bfa565b613644565b005b61068560048036038101906106809190614f5f565b613b25565b6040516106929190614e60565b60405180910390f35b6106b560048036038101906106b09190614bfa565b613c41565b6040516106c3929190614c61565b60405180910390f35b6106d4613ca2565b6040516106e19190614a91565b60405180910390f35b61070460048036038101906106ff9190614f5f565b613d35565b6040516107119190614e60565b60405180910390f35b610722613e51565b60405161072f9190615072565b60405180910390f35b610752600480360381019061074d9190614bfa565b613f52565b60405161075f91906147d6565b60405180910390f35b610782600480360381019061077d9190614668565b614003565b005b61079e60048036038101906107999190614668565b6141bd565b6040516107ab91906147d6565b60405180910390f35b5f60015f3373ffffffffffffffffffffffffffffffffffffffff1673ffffffffffffffffffffffffffffffffffffffff1681526020019081526020015f205f9054906101000a900460ff1661083e576040517f08c379a000000000000000000000000000000000000000000000000000000000815260040161083590615102565b60405180910390fd5b80600581111561085157610850614e79565b5b5f803373ffffffffffffffffffffffffffffffffffffffff1673ffffffffffffffffffffffffffffffffffffffff1681526020019081526020015f205f9054906101000a900460ff1660058111156108ac576108ab614e79565b5b146108ec576040517f08c379a00000000000000000000000000000000000000000000000000000000081526004016108e390615190565b60405180910390fd5b3373ffffffffffffffffffffffffffffffffffffffff168273ffffffffffffffffffffffffffffffffffffffff160361095a576040517f08c379a00000000000000000000000000000000000000000000000000000000081526004016109519061521e565b60405180910390fd5b600a5f8373ffffffffffffffffffffffffffffffffffffffff1673ffffffffffffffffffffffffffffffffffffffff1681526020019081526020015f2060405180604001604052803373ffffffffffffffffffffffffffffffffffffffff1681526020015f1515815250908060018154018082558091505060019003905f5260205f20015f909190919091505f820151815f015f6101000a81548173ffffffffffffffffffffffffffffffffffffffff021916908373ffffffffffffffffffffffffffffffffffffffff1602179055506020820151815f0160146101000a81548160ff02191690831515021790555050507f40c7749b16fdfb0d550f20273a7767875059d647af94f5a9610c63ad73dcc79f8233604051610a7c92919061523c565b60405180910390a15050565b6008602052825f5260405f20602052815f5260405f208181548110610aab575f80fd5b905f5260205f20015f9250925050508054610ac590615290565b80601f0160208091040260200160405190810160405280929190818152602001828054610af190615290565b8015610b3c5780601f10610b1357610100808354040283529160200191610b3c565b820191905f5260205f20905b815481529060010190602001808311610b1f57829003601f168201915b505050505081565b5f600a5f3373ffffffffffffffffffffffffffffffffffffffff1673ffffffffffffffffffffffffffffffffffffffff1681526020019081526020015f2090505f5b8180549050811015610cbf578273ffffffffffffffffffffffffffffffffffffffff16828281548110610bbc57610bbb6152c0565b5b905f5260205f20015f015f9054906101000a900473ffffffffffffffffffffffffffffffffffffffff1673ffffffffffffffffffffffffffffffffffffffff16148015610c315750818181548110610c1757610c166152c0565b5b905f5260205f20015f0160149054906101000a900460ff16155b15610cac576001828281548110610c4b57610c4a6152c0565b5b905f5260205f20015f0160146101000a81548160ff0219169083151502179055507f9f520b3bfc56d06f7065d10b4683b3f57ac8895d5026cd176dee95ce1454cb8d3384604051610c9d92919061523c565b60405180910390a15050610cfb565b8080610cb79061531a565b915050610b86565b506040517f08c379a0000000000000000000000000000000000000000000000000000000008152600401610cf2906153d1565b60405180910390fd5b50565b5f60015f3373ffffffffffffffffffffffffffffffffffffffff1673ffffffffffffffffffffffffffffffffffffffff1681526020019081526020015f205f9054906101000a900460ff16610d88576040517f08c379a0000000000000000000000000000000000000000000000000000000008152600401610d7f90615102565b60405180910390fd5b806005811115610d9b57610d9a614e79565b5b5f803373ffffffffffffffffffffffffffffffffffffffff1673ffffffffffffffffffffffffffffffffffffffff1681526020019081526020015f205f9054906101000a900460ff166005811115610df657610df5614e79565b5b14610e36576040517f08c379a0000000000000000000000000000000000000000000000000000000008152600401610e2d90615190565b60405180910390fd5b610e408433613d35565b610e7f576040517f08c379a0000000000000000000000000000000000000000000000000000000008152600401610e769061545f565b60405180910390fd5b60085f8573ffffffffffffffffffffffffffffffffffffffff1673ffffffffffffffffffffffffffffffffffffffff1681526020019081526020015f205f8460ff1660ff1681526020019081526020015f2082908060018154018082558091505060019003905f5260205f20015f909190919091509081610f00919061561a565b507f80ae59eb80bb311cfa25f7e9cbc109f47c6d3f07955577d8643cc8cce0db3aed848484604051610f3493929190614cb0565b60405180910390a150505050565b600360015f3373ffffffffffffffffffffffffffffffffffffffff1673ffffffffffffffffffffffffffffffffffffffff1681526020019081526020015f205f9054906101000a900460ff16610fcd576040517f08c379a0000000000000000000000000000000000000000000000000000000008152600401610fc490615102565b60405180910390fd5b806005811115610fe057610fdf614e79565b5b5f803373ffffffffffffffffffffffffffffffffffffffff1673ffffffffffffffffffffffffffffffffffffffff1681526020019081526020015f205f9054906101000a900460ff16600581111561103b5761103a614e79565b5b1461107b576040517f08c379a000000000000000000000000000000000000000000000000000000000815260040161107290615190565b60405180910390fd5b6001600581111561108f5761108e614e79565b5b5f808473ffffffffffffffffffffffffffffffffffffffff1673ffffffffffffffffffffffffffffffffffffffff1681526020019081526020015f205f9054906101000a900460ff1660058111156110ea576110e9614e79565b5b036110fb576110fa826004614315565b5b61110482614493565b5050565b6060611196600580548060200260200160405190810160405280929190818152602001828054801561118c57602002820191905f5260205f20905b815f9054906101000a900473ffffffffffffffffffffffffffffffffffffffff1673ffffffffffffffffffffffffffffffffffffffff1681526020019060010190808311611143575b505050505061140f565b905090565b60603373ffffffffffffffffffffffffffffffffffffffff168373ffffffffffffffffffffffffffffffffffffffff1614806111dd57506111dc8333613b25565b5b61121c576040517f08c379a00000000000000000000000000000000000000000000000000000000081526004016112139061545f565b60405180910390fd5b5f60085f8573ffffffffffffffffffffffffffffffffffffffff1673ffffffffffffffffffffffffffffffffffffffff1681526020019081526020015f205f8460ff1660ff1681526020019081526020015f2080549050036112b3576040517f08c379a00000000000000000000000000000000000000000000000000000000081526004016112aa90615759565b60405180910390fd5b60085f8473ffffffffffffffffffffffffffffffffffffffff1673ffffffffffffffffffffffffffffffffffffffff1681526020019081526020015f205f8360ff1660ff1681526020019081526020015f20600160085f8673ffffffffffffffffffffffffffffffffffffffff1673ffffffffffffffffffffffffffffffffffffffff1681526020019081526020015f205f8560ff1660ff1681526020019081526020015f20805490506113679190615777565b81548110611378576113776152c0565b5b905f5260205f2001805461138b90615290565b80601f01602080910402602001604051908101604052809291908181526020018280546113b790615290565b80156114025780601f106113d957610100808354040283529160200191611402565b820191905f5260205f20905b8154815290600101906020018083116113e557829003601f168201915b5050505050905092915050565b60605f825167ffffffffffffffff81111561142d5761142c6147fe565b5b60405190808252806020026020018201604052801561146057816020015b606081526020019060019003908161144b5790505b5090505f5b835181101561157d5760075f858381518110611484576114836152c0565b5b602002602001015173ffffffffffffffffffffffffffffffffffffffff1673ffffffffffffffffffffffffffffffffffffffff1681526020019081526020015f2080546114d090615290565b80601f01602080910402602001604051908101604052809291908181526020018280546114fc90615290565b80156115475780601f1061151e57610100808354040283529160200191611547565b820191905f5260205f20905b81548152906001019060200180831161152a57829003601f168201915b505050505082828151811061155f5761155e6152c0565b5b602002602001018190525080806115759061531a565b915050611465565b5080915050919050565b600460015f3373ffffffffffffffffffffffffffffffffffffffff1673ffffffffffffffffffffffffffffffffffffffff1681526020019081526020015f205f9054906101000a900460ff16611612576040517f08c379a000000000000000000000000000000000000000000000000000000000815260040161160990615102565b60405180910390fd5b80600581111561162557611624614e79565b5b5f803373ffffffffffffffffffffffffffffffffffffffff1673ffffffffffffffffffffffffffffffffffffffff1681526020019081526020015f205f9054906101000a900460ff1660058111156116805761167f614e79565b5b146116c0576040517f08c379a00000000000000000000000000000000000000000000000000000000081526004016116b790615190565b60405180910390fd5b600260058111156116d4576116d3614e79565b5b5f808473ffffffffffffffffffffffffffffffffffffffff1673ffffffffffffffffffffffffffffffffffffffff1681526020019081526020015f205f9054906101000a900460ff16600581111561172f5761172e614e79565b5b036117405761173f826002614315565b5b61174982614493565b5050565b600a602052815f5260405f208181548110611766575f80fd5b905f5260205f20015f9150915050805f015f9054906101000a900473ffffffffffffffffffffffffffffffffffffffff1690805f0160149054906101000a900460ff16905082565b606061183c600480548060200260200160405190810160405280929190818152602001828054801561183257602002820191905f5260205f20905b815f9054906101000a900473ffffffffffffffffffffffffffffffffffffffff1673ffffffffffffffffffffffffffffffffffffffff16815260200190600101908083116117e9575b505050505061140f565b905090565b60065f9054906101000a900473ffffffffffffffffffffffffffffffffffffffff1681565b6060600460015f3373ffffffffffffffffffffffffffffffffffffffff1673ffffffffffffffffffffffffffffffffffffffff1681526020019081526020015f205f9054906101000a900460ff166118f3576040517f08c379a00000000000000000000000000000000000000000000000000000000081526004016118ea90615102565b60405180910390fd5b80600581111561190657611905614e79565b5b5f803373ffffffffffffffffffffffffffffffffffffffff1673ffffffffffffffffffffffffffffffffffffffff1681526020019081526020015f205f9054906101000a900460ff16600581111561196157611960614e79565b5b146119a1576040517f08c379a000000000000000000000000000000000000000000000000000000000815260040161199890615190565b60405180910390fd5b6040518060400160405280601081526020017f4920616d2073757065722061646d696e0000000000000000000000000000000081525091505090565b600c602052815f5260405f2081815481106119f6575f80fd5b905f5260205f2090600202015f9150915050805f015f9054906101000a900473ffffffffffffffffffffffffffffffffffffffff1690805f0160149054906101000a900460ff1690806001018054611a4d90615290565b80601f0160208091040260200160405190810160405280929190818152602001828054611a7990615290565b8015611ac45780601f10611a9b57610100808354040283529160200191611ac4565b820191905f5260205f20905b815481529060010190602001808311611aa757829003601f168201915b5050505050905083565b5f60015f3373ffffffffffffffffffffffffffffffffffffffff1673ffffffffffffffffffffffffffffffffffffffff1681526020019081526020015f205f9054906101000a900460ff16611b58576040517f08c379a0000000000000000000000000000000000000000000000000000000008152600401611b4f90615102565b60405180910390fd5b806005811115611b6b57611b6a614e79565b5b5f803373ffffffffffffffffffffffffffffffffffffffff1673ffffffffffffffffffffffffffffffffffffffff1681526020019081526020015f205f9054906101000a900460ff166005811115611bc657611bc5614e79565b5b14611c06576040517f08c379a0000000000000000000000000000000000000000000000000000000008152600401611bfd90615190565b60405180910390fd5b611c108433613d35565b611c4f576040517f08c379a0000000000000000000000000000000000000000000000000000000008152600401611c469061545f565b60405180910390fd5b600c5f3373ffffffffffffffffffffffffffffffffffffffff1673ffffffffffffffffffffffffffffffffffffffff1681526020019081526020015f2060405180606001604052808673ffffffffffffffffffffffffffffffffffffffff1681526020018560ff16815260200184815250908060018154018082558091505060019003905f5260205f2090600202015f909190919091505f820151815f015f6101000a81548173ffffffffffffffffffffffffffffffffffffffff021916908373ffffffffffffffffffffffffffffffffffffffff1602179055506020820151815f0160146101000a81548160ff021916908360ff1602179055506040820151816001019081611d5f919061561a565b50505050505050565b6060611df66003805480602002602001604051908101604052809291908181526020018280548015611dec57602002820191905f5260205f20905b815f9054906101000a900473ffffffffffffffffffffffffffffffffffffffff1673ffffffffffffffffffffffffffffffffffffffff1681526020019060010190808311611da3575b505050505061140f565b905090565b6060600a5f3373ffffffffffffffffffffffffffffffffffffffff1673ffffffffffffffffffffffffffffffffffffffff1681526020019081526020015f20805480602002602001604051908101604052809291908181526020015f905b82821015611ef3578382905f5260205f20016040518060400160405290815f82015f9054906101000a900473ffffffffffffffffffffffffffffffffffffffff1673ffffffffffffffffffffffffffffffffffffffff1673ffffffffffffffffffffffffffffffffffffffff1681526020015f820160149054906101000a900460ff16151515158152505081526020019060010190611e59565b50505050905090565b60603373ffffffffffffffffffffffffffffffffffffffff168373ffffffffffffffffffffffffffffffffffffffff161480611f3e5750611f3d8333613b25565b5b611f7d576040517f08c379a0000000000000000000000000000000000000000000000000000000008152600401611f749061545f565b60405180910390fd5b5f60085f8573ffffffffffffffffffffffffffffffffffffffff1673ffffffffffffffffffffffffffffffffffffffff1681526020019081526020015f205f8460ff1660ff1681526020019081526020015f208054905003612014576040517f08c379a000000000000000000000000000000000000000000000000000000000815260040161200b90615759565b60405180910390fd5b60085f8473ffffffffffffffffffffffffffffffffffffffff1673ffffffffffffffffffffffffffffffffffffffff1681526020019081526020015f205f8360ff1660ff1681526020019081526020015f20805480602002602001604051908101604052809291908181526020015f905b8282101561212d578382905f5260205f200180546120a290615290565b80601f01602080910402602001604051908101604052809291908181526020018280546120ce90615290565b80156121195780601f106120f057610100808354040283529160200191612119565b820191905f5260205f20905b8154815290600101906020018083116120fc57829003601f168201915b505050505081526020019060010190612085565b50505050905092915050565b6004600581111561214d5761214c614e79565b5b5f803373ffffffffffffffffffffffffffffffffffffffff1673ffffffffffffffffffffffffffffffffffffffff1681526020019081526020015f205f9054906101000a900460ff1660058111156121a8576121a7614e79565b5b036123b157600260058111156121c1576121c0614e79565b5b8160058111156121d4576121d3614e79565b5b14806122045750600360058111156121ef576121ee614e79565b5b81600581111561220257612201614e79565b5b145b612243576040517f08c379a000000000000000000000000000000000000000000000000000000000815260040161223a9061581a565b60405180910390fd5b60015f8373ffffffffffffffffffffffffffffffffffffffff1673ffffffffffffffffffffffffffffffffffffffff1681526020019081526020015f205f9054906101000a900460ff166123ac57600260058111156122a5576122a4614e79565b5b8160058111156122b8576122b7614e79565b5b0361231e57600282908060018154018082558091505060019003905f5260205f20015f9091909190916101000a81548173ffffffffffffffffffffffffffffffffffffffff021916908373ffffffffffffffffffffffffffffffffffffffff1602179055505b6003600581111561233257612331614e79565b5b81600581111561234557612344614e79565b5b036123ab57600382908060018154018082558091505060019003905f5260205f20015f9091909190916101000a81548173ffffffffffffffffffffffffffffffffffffffff021916908373ffffffffffffffffffffffffffffffffffffffff1602179055505b5b6126a7565b600260058111156123c5576123c4614e79565b5b5f803373ffffffffffffffffffffffffffffffffffffffff1673ffffffffffffffffffffffffffffffffffffffff1681526020019081526020015f205f9054906101000a900460ff1660058111156124205761241f614e79565b5b14801561245057505f600581111561243b5761243a614e79565b5b81600581111561244e5761244d614e79565b5b145b80156124a3575060015f8373ffffffffffffffffffffffffffffffffffffffff1673ffffffffffffffffffffffffffffffffffffffff1681526020019081526020015f205f9054906101000a900460ff16155b1561250d57600582908060018154018082558091505060019003905f5260205f20015f9091909190916101000a81548173ffffffffffffffffffffffffffffffffffffffff021916908373ffffffffffffffffffffffffffffffffffffffff1602179055506126a6565b6003600581111561252157612520614e79565b5b5f803373ffffffffffffffffffffffffffffffffffffffff1673ffffffffffffffffffffffffffffffffffffffff1681526020019081526020015f205f9054906101000a900460ff16600581111561257c5761257b614e79565b5b1480156125ad57506001600581111561259857612597614e79565b5b8160058111156125ab576125aa614e79565b5b145b8015612600575060015f8373ffffffffffffffffffffffffffffffffffffffff1673ffffffffffffffffffffffffffffffffffffffff1681526020019081526020015f205f9054906101000a900460ff16155b1561266a57600482908060018154018082558091505060019003905f5260205f20015f9091909190916101000a81548173ffffffffffffffffffffffffffffffffffffffff021916908373ffffffffffffffffffffffffffffffffffffffff1602179055506126a5565b6040517f08c379a000000000000000000000000000000000000000000000000000000000815260040161269c906158ce565b60405180910390fd5b5b5b6126b182826144ea565b5050565b5f60065f9054906101000a900473ffffffffffffffffffffffffffffffffffffffff16905090565b6001602052805f5260405f205f915054906101000a900460ff1681565b6007602052805f5260405f205f91509050805461271690615290565b80601f016020809104026020016040519081016040528092919081815260200182805461274290615290565b801561278d5780601f106127645761010080835404028352916020019161278d565b820191905f5260205f20905b81548152906001019060200180831161277057829003601f168201915b505050505081565b600260015f3373ffffffffffffffffffffffffffffffffffffffff1673ffffffffffffffffffffffffffffffffffffffff1681526020019081526020015f205f9054906101000a900460ff16612820576040517f08c379a000000000000000000000000000000000000000000000000000000000815260040161281790615102565b60405180910390fd5b80600581111561283357612832614e79565b5b5f803373ffffffffffffffffffffffffffffffffffffffff1673ffffffffffffffffffffffffffffffffffffffff1681526020019081526020015f205f9054906101000a900460ff16600581111561288e5761288d614e79565b5b146128ce576040517f08c379a00000000000000000000000000000000000000000000000000000000081526004016128c590615190565b60405180910390fd5b7fa380f0b7ee635659644dd1aaeb442a4a549248c644a0ae23dce219ffd09548936040516128fb90615936565b60405180910390a150565b5f600a5f3373ffffffffffffffffffffffffffffffffffffffff1673ffffffffffffffffffffffffffffffffffffffff1681526020019081526020015f2090505f5b8180549050811015612b49578273ffffffffffffffffffffffffffffffffffffffff1682828154811061297e5761297d6152c0565b5b905f5260205f20015f015f9054906101000a900473ffffffffffffffffffffffffffffffffffffffff1673ffffffffffffffffffffffffffffffffffffffff1603612b365781600183805490506129d59190615777565b815481106129e6576129e56152c0565b5b905f5260205f2001828281548110612a0157612a006152c0565b5b905f5260205f20015f82015f9054906101000a900473ffffffffffffffffffffffffffffffffffffffff16815f015f6101000a81548173ffffffffffffffffffffffffffffffffffffffff021916908373ffffffffffffffffffffffffffffffffffffffff1602179055505f820160149054906101000a900460ff16815f0160146101000a81548160ff02191690831515021790555090505081805480612aab57612aaa615954565b5b600190038181905f5260205f20015f8082015f6101000a81549073ffffffffffffffffffffffffffffffffffffffff02191690555f820160146101000a81549060ff0219169055505090557f825c8be24eb0df19500f63e86c29e7d0d951e73056b889b891d85e40938d9b6e3384604051612b2792919061523c565b60405180910390a15050612b85565b8080612b419061531a565b915050612948565b506040517f08c379a0000000000000000000000000000000000000000000000000000000008152600401612b7c906153d1565b60405180910390fd5b50565b5f60015f3373ffffffffffffffffffffffffffffffffffffffff1673ffffffffffffffffffffffffffffffffffffffff1681526020019081526020015f205f9054906101000a900460ff16612c12576040517f08c379a0000000000000000000000000000000000000000000000000000000008152600401612c0990615102565b60405180910390fd5b806005811115612c2557612c24614e79565b5b5f803373ffffffffffffffffffffffffffffffffffffffff1673ffffffffffffffffffffffffffffffffffffffff1681526020019081526020015f205f9054906101000a900460ff166005811115612c8057612c7f614e79565b5b14612cc0576040517f08c379a0000000000000000000000000000000000000000000000000000000008152600401612cb790615190565b60405180910390fd5b7fa380f0b7ee635659644dd1aaeb442a4a549248c644a0ae23dce219ffd0954893604051612ced906159cb565b60405180910390a150565b600260015f3373ffffffffffffffffffffffffffffffffffffffff1673ffffffffffffffffffffffffffffffffffffffff1681526020019081526020015f205f9054906101000a900460ff16612d83576040517f08c379a0000000000000000000000000000000000000000000000000000000008152600401612d7a90615102565b60405180910390fd5b806005811115612d9657612d95614e79565b5b5f803373ffffffffffffffffffffffffffffffffffffffff1673ffffffffffffffffffffffffffffffffffffffff1681526020019081526020015f205f9054906101000a900460ff166005811115612df157612df0614e79565b5b14612e31576040517f08c379a0000000000000000000000000000000000000000000000000000000008152600401612e2890615190565b60405180910390fd5b5f6005811115612e4457612e43614e79565b5b5f808473ffffffffffffffffffffffffffffffffffffffff1673ffffffffffffffffffffffffffffffffffffffff1681526020019081526020015f205f9054906101000a900460ff166005811115612e9f57612e9e614e79565b5b03612eb057612eaf826005614315565b5b612eb982614493565b5050565b5f602052805f5260405f205f915054906101000a900460ff1681565b5f60015f3373ffffffffffffffffffffffffffffffffffffffff1673ffffffffffffffffffffffffffffffffffffffff1681526020019081526020015f205f9054906101000a900460ff16612f63576040517f08c379a0000000000000000000000000000000000000000000000000000000008152600401612f5a90615102565b60405180910390fd5b806005811115612f7657612f75614e79565b5b5f803373ffffffffffffffffffffffffffffffffffffffff1673ffffffffffffffffffffffffffffffffffffffff1681526020019081526020015f205f9054906101000a900460ff166005811115612fd157612fd0614e79565b5b14613011576040517f08c379a000000000000000000000000000000000000000000000000000000000815260040161300890615190565b60405180910390fd5b3373ffffffffffffffffffffffffffffffffffffffff168273ffffffffffffffffffffffffffffffffffffffff160361307f576040517f08c379a00000000000000000000000000000000000000000000000000000000081526004016130769061521e565b60405180910390fd5b600b5f8373ffffffffffffffffffffffffffffffffffffffff1673ffffffffffffffffffffffffffffffffffffffff1681526020019081526020015f2060405180604001604052803373ffffffffffffffffffffffffffffffffffffffff1681526020015f1515815250908060018154018082558091505060019003905f5260205f20015f909190919091505f820151815f015f6101000a81548173ffffffffffffffffffffffffffffffffffffffff021916908373ffffffffffffffffffffffffffffffffffffffff1602179055506020820151815f0160146101000a81548160ff02191690831515021790555050507f5a574b6b882af89be33b799d17f69fcf0930fdaf1b9231d75ec405457455bd2282336040516131a192919061523c565b60405180910390a15050565b8160075f8373ffffffffffffffffffffffffffffffffffffffff1673ffffffffffffffffffffffffffffffffffffffff1681526020019081526020015f2090816131f7919061561a565b505050565b600460015f3373ffffffffffffffffffffffffffffffffffffffff1673ffffffffffffffffffffffffffffffffffffffff1681526020019081526020015f205f9054906101000a900460ff16613287576040517f08c379a000000000000000000000000000000000000000000000000000000000815260040161327e90615102565b60405180910390fd5b80600581111561329a57613299614e79565b5b5f803373ffffffffffffffffffffffffffffffffffffffff1673ffffffffffffffffffffffffffffffffffffffff1681526020019081526020015f205f9054906101000a900460ff1660058111156132f5576132f4614e79565b5b14613335576040517f08c379a000000000000000000000000000000000000000000000000000000000815260040161332c90615190565b60405180910390fd5b6003600581111561334957613348614e79565b5b5f808473ffffffffffffffffffffffffffffffffffffffff1673ffffffffffffffffffffffffffffffffffffffff1681526020019081526020015f205f9054906101000a900460ff1660058111156133a4576133a3614e79565b5b036133b5576133b4826003614315565b5b6133be82614493565b5050565b5f600b5f3373ffffffffffffffffffffffffffffffffffffffff1673ffffffffffffffffffffffffffffffffffffffff1681526020019081526020015f2090505f5b8180549050811015613605578273ffffffffffffffffffffffffffffffffffffffff1682828154811061343a576134396152c0565b5b905f5260205f20015f015f9054906101000a900473ffffffffffffffffffffffffffffffffffffffff1673ffffffffffffffffffffffffffffffffffffffff16036135f25781600183805490506134919190615777565b815481106134a2576134a16152c0565b5b905f5260205f20018282815481106134bd576134bc6152c0565b5b905f5260205f20015f82015f9054906101000a900473ffffffffffffffffffffffffffffffffffffffff16815f015f6101000a81548173ffffffffffffffffffffffffffffffffffffffff021916908373ffffffffffffffffffffffffffffffffffffffff1602179055505f820160149054906101000a900460ff16815f0160146101000a81548160ff0219169083151502179055509050508180548061356757613566615954565b5b600190038181905f5260205f20015f8082015f6101000a81549073ffffffffffffffffffffffffffffffffffffffff02191690555f820160146101000a81549060ff0219169055505090557f10fbca9c665536e61f3732adc35c3187daf1d19f8bd5bcb48cbb56db9ab0004833846040516135e392919061523c565b60405180910390a15050613641565b80806135fd9061531a565b915050613404565b506040517f08c379a000000000000000000000000000000000000000000000000000000000815260040161363890615a59565b60405180910390fd5b50565b5f600c5f8473ffffffffffffffffffffffffffffffffffffffff1673ffffffffffffffffffffffffffffffffffffffff1681526020019081526020015f208281548110613694576136936152c0565b5b905f5260205f2090600202016040518060600160405290815f82015f9054906101000a900473ffffffffffffffffffffffffffffffffffffffff1673ffffffffffffffffffffffffffffffffffffffff1673ffffffffffffffffffffffffffffffffffffffff1681526020015f820160149054906101000a900460ff1660ff1660ff16815260200160018201805461372b90615290565b80601f016020809104026020016040519081016040528092919081815260200182805461375790615290565b80156137a25780601f10613779576101008083540402835291602001916137a2565b820191905f5260205f20905b81548152906001019060200180831161378557829003601f168201915b50505050508152505090506137ba815f015184613d35565b6137f9576040517f08c379a00000000000000000000000000000000000000000000000000000000081526004016137f09061545f565b60405180910390fd5b60085f825f015173ffffffffffffffffffffffffffffffffffffffff1673ffffffffffffffffffffffffffffffffffffffff1681526020019081526020015f205f826020015160ff1660ff1681526020019081526020015f208160400151908060018154018082558091505060019003905f5260205f20015f909190919091509081613885919061561a565b50600c5f8473ffffffffffffffffffffffffffffffffffffffff1673ffffffffffffffffffffffffffffffffffffffff1681526020019081526020015f206001600c5f8673ffffffffffffffffffffffffffffffffffffffff1673ffffffffffffffffffffffffffffffffffffffff1681526020019081526020015f20805490506139109190615777565b81548110613921576139206152c0565b5b905f5260205f209060020201600c5f8573ffffffffffffffffffffffffffffffffffffffff1673ffffffffffffffffffffffffffffffffffffffff1681526020019081526020015f20838154811061397c5761397b6152c0565b5b905f5260205f2090600202015f82015f9054906101000a900473ffffffffffffffffffffffffffffffffffffffff16815f015f6101000a81548173ffffffffffffffffffffffffffffffffffffffff021916908373ffffffffffffffffffffffffffffffffffffffff1602179055505f820160149054906101000a900460ff16815f0160146101000a81548160ff021916908360ff16021790555060018201816001019081613a2b9190615a8c565b50905050600c5f8473ffffffffffffffffffffffffffffffffffffffff1673ffffffffffffffffffffffffffffffffffffffff1681526020019081526020015f20805480613a7c57613a7b615954565b5b600190038181905f5260205f2090600202015f8082015f6101000a81549073ffffffffffffffffffffffffffffffffffffffff02191690555f820160146101000a81549060ff0219169055600182015f613ad691906145a5565b505090557f80ae59eb80bb311cfa25f7e9cbc109f47c6d3f07955577d8643cc8cce0db3aed815f015182602001518360400151604051613b1893929190614cb0565b60405180910390a1505050565b5f80600a5f8573ffffffffffffffffffffffffffffffffffffffff1673ffffffffffffffffffffffffffffffffffffffff1681526020019081526020015f2090505f5b8180549050811015613c35578373ffffffffffffffffffffffffffffffffffffffff16828281548110613b9e57613b9d6152c0565b5b905f5260205f20015f015f9054906101000a900473ffffffffffffffffffffffffffffffffffffffff1673ffffffffffffffffffffffffffffffffffffffff16148015613c125750818181548110613bf957613bf86152c0565b5b905f5260205f20015f0160149054906101000a900460ff165b15613c2257600192505050613c3b565b8080613c2d9061531a565b915050613b68565b505f9150505b92915050565b600b602052815f5260405f208181548110613c5a575f80fd5b905f5260205f20015f9150915050805f015f9054906101000a900473ffffffffffffffffffffffffffffffffffffffff1690805f0160149054906101000a900460ff16905082565b6060613d306002805480602002602001604051908101604052809291908181526020018280548015613d2657602002820191905f5260205f20905b815f9054906101000a900473ffffffffffffffffffffffffffffffffffffffff1673ffffffffffffffffffffffffffffffffffffffff1681526020019060010190808311613cdd575b505050505061140f565b905090565b5f80600b5f8573ffffffffffffffffffffffffffffffffffffffff1673ffffffffffffffffffffffffffffffffffffffff1681526020019081526020015f2090505f5b8180549050811015613e45578373ffffffffffffffffffffffffffffffffffffffff16828281548110613dae57613dad6152c0565b5b905f5260205f20015f015f9054906101000a900473ffffffffffffffffffffffffffffffffffffffff1673ffffffffffffffffffffffffffffffffffffffff16148015613e225750818181548110613e0957613e086152c0565b5b905f5260205f20015f0160149054906101000a900460ff165b15613e3257600192505050613e4b565b8080613e3d9061531a565b915050613d78565b505f9150505b92915050565b6060600b5f3373ffffffffffffffffffffffffffffffffffffffff1673ffffffffffffffffffffffffffffffffffffffff1681526020019081526020015f20805480602002602001604051908101604052809291908181526020015f905b82821015613f49578382905f5260205f20016040518060400160405290815f82015f9054906101000a900473ffffffffffffffffffffffffffffffffffffffff1673ffffffffffffffffffffffffffffffffffffffff1673ffffffffffffffffffffffffffffffffffffffff1681526020015f820160149054906101000a900460ff16151515158152505081526020019060010190613eaf565b50505050905090565b6009602052815f5260405f208181548110613f6b575f80fd5b905f5260205f20015f91509150508054613f8490615290565b80601f0160208091040260200160405190810160405280929190818152602001828054613fb090615290565b8015613ffb5780601f10613fd257610100808354040283529160200191613ffb565b820191905f5260205f20905b815481529060010190602001808311613fde57829003601f168201915b505050505081565b5f600b5f3373ffffffffffffffffffffffffffffffffffffffff1673ffffffffffffffffffffffffffffffffffffffff1681526020019081526020015f2090505f5b818054905081101561417e578273ffffffffffffffffffffffffffffffffffffffff1682828154811061407b5761407a6152c0565b5b905f5260205f20015f015f9054906101000a900473ffffffffffffffffffffffffffffffffffffffff1673ffffffffffffffffffffffffffffffffffffffff161480156140f057508181815481106140d6576140d56152c0565b5b905f5260205f20015f0160149054906101000a900460ff16155b1561416b57600182828154811061410a576141096152c0565b5b905f5260205f20015f0160146101000a81548160ff0219169083151502179055507ffded963ef97e2362b7fae3022f58cea81f7c1f832e11927ff704d53186b3826c338460405161415c92919061523c565b60405180910390a150506141ba565b80806141769061531a565b915050614045565b506040517f08c379a00000000000000000000000000000000000000000000000000000000081526004016141b190615a59565b60405180910390fd5b50565b60605f60075f8473ffffffffffffffffffffffffffffffffffffffff1673ffffffffffffffffffffffffffffffffffffffff1681526020019081526020015f20805461420890615290565b90500361424a576040517f08c379a000000000000000000000000000000000000000000000000000000000815260040161424190615bbb565b60405180910390fd5b60075f8373ffffffffffffffffffffffffffffffffffffffff1673ffffffffffffffffffffffffffffffffffffffff1681526020019081526020015f20805461429290615290565b80601f01602080910402602001604051908101604052809291908181526020018280546142be90615290565b80156143095780601f106142e057610100808354040283529160200191614309565b820191905f5260205f20905b8154815290600101906020018083116142ec57829003601f168201915b50505050509050919050565b5f5b818054905081101561448e578273ffffffffffffffffffffffffffffffffffffffff1682828154811061434d5761434c6152c0565b5b905f5260205f20015f9054906101000a900473ffffffffffffffffffffffffffffffffffffffff1673ffffffffffffffffffffffffffffffffffffffff160361447b5781600183805490506143a29190615777565b815481106143b3576143b26152c0565b5b905f5260205f20015f9054906101000a900473ffffffffffffffffffffffffffffffffffffffff168282815481106143ee576143ed6152c0565b5b905f5260205f20015f6101000a81548173ffffffffffffffffffffffffffffffffffffffff021916908373ffffffffffffffffffffffffffffffffffffffff1602179055508180548061444457614443615954565b5b600190038181905f5260205f20015f6101000a81549073ffffffffffffffffffffffffffffffffffffffff0219169055905561448e565b80806144869061531a565b915050614317565b505050565b5f60015f8373ffffffffffffffffffffffffffffffffffffffff1673ffffffffffffffffffffffffffffffffffffffff1681526020019081526020015f205f6101000a81548160ff02191690831515021790555050565b805f808473ffffffffffffffffffffffffffffffffffffffff1673ffffffffffffffffffffffffffffffffffffffff1681526020019081526020015f205f6101000a81548160ff0219169083600581111561454857614547614e79565b5b02179055506001805f8473ffffffffffffffffffffffffffffffffffffffff1673ffffffffffffffffffffffffffffffffffffffff1681526020019081526020015f205f6101000a81548160ff0219169083151502179055505050565b5080546145b190615290565b5f825580601f106145c257506145df565b601f0160209004905f5260205f20908101906145de91906145e2565b5b50565b5b808211156145f9575f815f9055506001016145e3565b5090565b5f604051905090565b5f80fd5b5f80fd5b5f73ffffffffffffffffffffffffffffffffffffffff82169050919050565b5f6146378261460e565b9050919050565b6146478161462d565b8114614651575f80fd5b50565b5f813590506146628161463e565b92915050565b5f6020828403121561467d5761467c614606565b5b5f61468a84828501614654565b91505092915050565b5f60ff82169050919050565b6146a881614693565b81146146b2575f80fd5b50565b5f813590506146c38161469f565b92915050565b5f819050919050565b6146db816146c9565b81146146e5575f80fd5b50565b5f813590506146f6816146d2565b92915050565b5f805f6060848603121561471357614712614606565b5b5f61472086828701614654565b9350506020614731868287016146b5565b9250506040614742868287016146e8565b9150509250925092565b5f81519050919050565b5f82825260208201905092915050565b5f5b83811015614783578082015181840152602081019050614768565b5f8484015250505050565b5f601f19601f8301169050919050565b5f6147a88261474c565b6147b28185614756565b93506147c2818560208601614766565b6147cb8161478e565b840191505092915050565b5f6020820190508181035f8301526147ee818461479e565b905092915050565b5f80fd5b5f80fd5b7f4e487b71000000000000000000000000000000000000000000000000000000005f52604160045260245ffd5b6148348261478e565b810181811067ffffffffffffffff82111715614853576148526147fe565b5b80604052505050565b5f6148656145fd565b9050614871828261482b565b919050565b5f67ffffffffffffffff8211156148905761488f6147fe565b5b6148998261478e565b9050602081019050919050565b828183375f83830152505050565b5f6148c66148c184614876565b61485c565b9050828152602081018484840111156148e2576148e16147fa565b5b6148ed8482856148a6565b509392505050565b5f82601f830112614909576149086147f6565b5b81356149198482602086016148b4565b91505092915050565b5f805f6060848603121561493957614938614606565b5b5f61494686828701614654565b9350506020614957868287016146b5565b925050604084013567ffffffffffffffff8111156149785761497761460a565b5b614984868287016148f5565b9150509250925092565b5f81519050919050565b5f82825260208201905092915050565b5f819050602082019050919050565b5f82825260208201905092915050565b5f6149d18261474c565b6149db81856149b7565b93506149eb818560208601614766565b6149f48161478e565b840191505092915050565b5f614a0a83836149c7565b905092915050565b5f602082019050919050565b5f614a288261498e565b614a328185614998565b935083602082028501614a44856149a8565b805f5b85811015614a7f5784840389528151614a6085826149ff565b9450614a6b83614a12565b925060208a01995050600181019050614a47565b50829750879550505050505092915050565b5f6020820190508181035f830152614aa98184614a1e565b905092915050565b5f8060408385031215614ac757614ac6614606565b5b5f614ad485828601614654565b9250506020614ae5858286016146b5565b9150509250929050565b5f67ffffffffffffffff821115614b0957614b086147fe565b5b602082029050602081019050919050565b5f80fd5b5f614b30614b2b84614aef565b61485c565b90508083825260208201905060208402830185811115614b5357614b52614b1a565b5b835b81811015614b7c5780614b688882614654565b845260208401935050602081019050614b55565b5050509392505050565b5f82601f830112614b9a57614b996147f6565b5b8135614baa848260208601614b1e565b91505092915050565b5f60208284031215614bc857614bc7614606565b5b5f82013567ffffffffffffffff811115614be557614be461460a565b5b614bf184828501614b86565b91505092915050565b5f8060408385031215614c1057614c0f614606565b5b5f614c1d85828601614654565b9250506020614c2e858286016146e8565b9150509250929050565b614c418161462d565b82525050565b5f8115159050919050565b614c5b81614c47565b82525050565b5f604082019050614c745f830185614c38565b614c816020830184614c52565b9392505050565b5f602082019050614c9b5f830184614c38565b92915050565b614caa81614693565b82525050565b5f606082019050614cc35f830186614c38565b614cd06020830185614ca1565b8181036040830152614ce2818461479e565b9050949350505050565b5f81519050919050565b5f82825260208201905092915050565b5f819050602082019050919050565b614d1e8161462d565b82525050565b614d2d81614c47565b82525050565b604082015f820151614d475f850182614d15565b506020820151614d5a6020850182614d24565b50505050565b5f614d6b8383614d33565b60408301905092915050565b5f602082019050919050565b5f614d8d82614cec565b614d978185614cf6565b9350614da283614d06565b805f5b83811015614dd2578151614db98882614d60565b9750614dc483614d77565b925050600181019050614da5565b5085935050505092915050565b5f6020820190508181035f830152614df78184614d83565b905092915050565b60068110614e0b575f80fd5b50565b5f81359050614e1c81614dff565b92915050565b5f8060408385031215614e3857614e37614606565b5b5f614e4585828601614654565b9250506020614e5685828601614e0e565b9150509250929050565b5f602082019050614e735f830184614c52565b92915050565b7f4e487b71000000000000000000000000000000000000000000000000000000005f52602160045260245ffd5b60068110614eb757614eb6614e79565b5b50565b5f819050614ec782614ea6565b919050565b5f614ed682614eba565b9050919050565b614ee681614ecc565b82525050565b5f602082019050614eff5f830184614edd565b92915050565b5f8060408385031215614f1b57614f1a614606565b5b5f83013567ffffffffffffffff811115614f3857614f3761460a565b5b614f44858286016148f5565b9250506020614f5585828601614654565b9150509250929050565b5f8060408385031215614f7557614f74614606565b5b5f614f8285828601614654565b9250506020614f9385828601614654565b9150509250929050565b5f81519050919050565b5f82825260208201905092915050565b5f819050602082019050919050565b604082015f820151614fda5f850182614d15565b506020820151614fed6020850182614d24565b50505050565b5f614ffe8383614fc6565b60408301905092915050565b5f602082019050919050565b5f61502082614f9d565b61502a8185614fa7565b935061503583614fb7565b805f5b8381101561506557815161504c8882614ff3565b97506150578361500a565b925050600181019050615038565b5085935050505092915050565b5f6020820190508181035f83015261508a8184615016565b905092915050565b7f556e617574686f72697a65643a2073656e64657220646f6573206e6f742068615f8201527f7665206120726f6c650000000000000000000000000000000000000000000000602082015250565b5f6150ec602983614756565b91506150f782615092565b604082019050919050565b5f6020820190508181035f830152615119816150e0565b9050919050565b7f556e617574686f72697a65643a2073656e64657220646f6573206e6f742068615f8201527f766520726571756972656420726f6c6500000000000000000000000000000000602082015250565b5f61517a603083614756565b915061518582615120565b604082019050919050565b5f6020820190508181035f8301526151a78161516e565b9050919050565b7f43616e6e6f7420726571756573742061636365737320746f20796f757273656c5f8201527f6600000000000000000000000000000000000000000000000000000000000000602082015250565b5f615208602183614756565b9150615213826151ae565b604082019050919050565b5f6020820190508181035f830152615235816151fc565b9050919050565b5f60408201905061524f5f830185614c38565b61525c6020830184614c38565b9392505050565b7f4e487b71000000000000000000000000000000000000000000000000000000005f52602260045260245ffd5b5f60028204905060018216806152a757607f821691505b6020821081036152ba576152b9615263565b5b50919050565b7f4e487b71000000000000000000000000000000000000000000000000000000005f52603260045260245ffd5b7f4e487b71000000000000000000000000000000000000000000000000000000005f52601160045260245ffd5b5f615324826146c9565b91507fffffffffffffffffffffffffffffffffffffffffffffffffffffffffffffffff8203615356576153556152ed565b5b600182019050919050565b7f4e6f20616363657373207265717565737420666f756e6420666f7220746865205f8201527f73706563696669656420646f63746f7200000000000000000000000000000000602082015250565b5f6153bb603083614756565b91506153c682615361565b604082019050919050565b5f6020820190508181035f8301526153e8816153af565b9050919050565b7f556e617574686f72697a65643a2073656e64657220646f6573206e6f742068615f8201527f76652061207065726d697373696f6e0000000000000000000000000000000000602082015250565b5f615449602f83614756565b9150615454826153ef565b604082019050919050565b5f6020820190508181035f8301526154768161543d565b9050919050565b5f819050815f5260205f209050919050565b5f6020601f8301049050919050565b5f82821b905092915050565b5f600883026154d97fffffffffffffffffffffffffffffffffffffffffffffffffffffffffffffffff8261549e565b6154e3868361549e565b95508019841693508086168417925050509392505050565b5f819050919050565b5f61551e615519615514846146c9565b6154fb565b6146c9565b9050919050565b5f819050919050565b61553783615504565b61554b61554382615525565b8484546154aa565b825550505050565b5f90565b61555f615553565b61556a81848461552e565b505050565b5b8181101561558d576155825f82615557565b600181019050615570565b5050565b601f8211156155d2576155a38161547d565b6155ac8461548f565b810160208510156155bb578190505b6155cf6155c78561548f565b83018261556f565b50505b505050565b5f82821c905092915050565b5f6155f25f19846008026155d7565b1980831691505092915050565b5f61560a83836155e3565b9150826002028217905092915050565b6156238261474c565b67ffffffffffffffff81111561563c5761563b6147fe565b5b6156468254615290565b615651828285615591565b5f60209050601f831160018114615682575f8415615670578287015190505b61567a85826155ff565b8655506156e1565b601f1984166156908661547d565b5f5b828110156156b757848901518255600182019150602085019450602081019050615692565b868310156156d457848901516156d0601f8916826155e3565b8355505b6001600288020188555050505b505050505050565b7f4e6f2049504653204349447320666f756e6420666f722074686973207075626c5f8201527f6963206b65790000000000000000000000000000000000000000000000000000602082015250565b5f615743602683614756565b915061574e826156e9565b604082019050919050565b5f6020820190508181035f83015261577081615737565b9050919050565b5f615781826146c9565b915061578c836146c9565b92508282039050818111156157a4576157a36152ed565b5b92915050565b7f537570657241646d696e2063616e206f6e6c792061737369676e2041646d696e5f8201527f20726f6c65730000000000000000000000000000000000000000000000000000602082015250565b5f615804602683614756565b915061580f826157aa565b604082019050919050565b5f6020820190508181035f830152615831816157f8565b9050919050565b7f556e617574686f72697a65643a2073656e6465722063616e6e6f7420617373695f8201527f676e20726f6c6573206f7220726f6c6520616c72656164792061737369676e6560208201527f6400000000000000000000000000000000000000000000000000000000000000604082015250565b5f6158b8604183614756565b91506158c382615838565b606082019050919050565b5f6020820190508181035f8301526158e5816158ac565b9050919050565b7f4920616d2061646d696e440000000000000000000000000000000000000000005f82015250565b5f615920600b83614756565b915061592b826158ec565b602082019050919050565b5f6020820190508181035f83015261594d81615914565b9050919050565b7f4e487b71000000000000000000000000000000000000000000000000000000005f52603160045260245ffd5b7f4920616d20646f63746f720000000000000000000000000000000000000000005f82015250565b5f6159b5600b83614756565b91506159c082615981565b602082019050919050565b5f6020820190508181035f8301526159e2816159a9565b9050919050565b7f4e6f20777269746520616363657373207265717565737420666f756e6420666f5f8201527f72207468652073706563696669656420646f63746f7200000000000000000000602082015250565b5f615a43603683614756565b9150615a4e826159e9565b604082019050919050565b5f6020820190508181035f830152615a7081615a37565b9050919050565b5f81549050615a8581615290565b9050919050565b818103615a9a575050615b6f565b615aa382615a77565b67ffffffffffffffff811115615abc57615abb6147fe565b5b615ac68254615290565b615ad1828285615591565b5f601f831160018114615afe575f8415615aec578287015490505b615af685826155ff565b865550615b68565b601f198416615b0c8761547d565b9650615b178661547d565b5f5b82811015615b3e57848901548255600182019150600185019450602081019050615b19565b86831015615b5b5784890154615b57601f8916826155e3565b8355505b6001600288020188555050505b5050505050505b565b7f4e6f2043494420666f756e6420666f72207468697320616464726573730000005f82015250565b5f615ba5601d83614756565b9150615bb082615b71565b602082019050919050565b5f6020820190508181035f830152615bd281615b99565b905091905056fea264697066735822122090140a1b9d86c986ca42c0603cab902caff046c45dbb7e0c11efbab0888c679064736f6c63430008150033",
  "immutableReferences": {},
  "source": "// SPDX-License-Identifier: MIT\r\npragma solidity ^0.8.0;\r\n\r\ncontract RoleBasedAccessControl {\r\n    enum Role {\r\n        Doctor,\r\n        Insurance,\r\n        AdminD,\r\n        AdminI,\r\n        SuperAdmin,\r\n        Patient\r\n    }\r\n\r\n    // Mapping from address to role\r\n    mapping(address => Role) public roles;\r\n    // Mapping to check if an address has a role\r\n    mapping(address => bool) public hasRole;\r\n\r\n    // Separate storage for admins\r\n    address[] private adminDs;\r\n\r\n    address[] private adminIs;\r\n\r\n    address[] private insurances;\r\n\r\n    address[] private doctors;\r\n\r\n    address public superAdmin;\r\n\r\n    struct AccessRequest {\r\n        address doctor;\r\n        bool approved;\r\n    }\r\n\r\n    struct AccessWriteRequest {\r\n        address doctor;\r\n        bool approved;\r\n    }\r\n\r\n    struct TempIPFSCID {\r\n        address publicKey;\r\n        uint8 slot;\r\n        string ipfsCID;\r\n    }\r\n\r\n    // Mapping from CID to public key\r\n    mapping(address => string) public addressToCID;\r\n    // Mapping from public key to a mapping of slots to arrays of IPFS CIDs\r\n    mapping(address => mapping(uint8 => string[])) public publicKeyToIPFSCIDs;\r\n\r\n    // Event to emit when a new mapping is created\r\n    event CIDMapped(string cid, string publicKey);\r\n    event IPFSCIDMapped(address publicKey, uint8 slot, string ipfsCID);\r\n\r\n    mapping(address => string[]) public patientDataHistory; // Mapping from user address to array of data CIDs\r\n\r\n    mapping(address => AccessRequest[]) public accessRequests;\r\n    mapping(address => AccessWriteRequest[]) public accessWriteRequests;\r\n\r\n    mapping(address => TempIPFSCID[]) public temporaryIPFSCIDs;\r\n\r\n    event AccessRequested(address patient, address doctor);\r\n    event AccessGranted(address patient, address doctor);\r\n    event AccessRevoked(address patient, address doctor);\r\n\r\n    event WriteAccessRequested(address patient, address doctor);\r\n    event WriteAccessGranted(address patient, address doctor);\r\n    event WriteAccessRevoked(address patient, address doctor);\r\n\r\n    // Function to map a CID to a public key\r\n    function keepcid(string memory cid, address publicKey) public {\r\n        addressToCID[publicKey] = cid;\r\n    }\r\n\r\n    function getCIDByAddress(\r\n        address _user\r\n    ) public view returns (string memory) {\r\n        require(\r\n            bytes(addressToCID[_user]).length != 0,\r\n            \"No CID found for this address\"\r\n        );\r\n        return addressToCID[_user];\r\n    }\r\n\r\n    // Event declaration\r\n    event ActionPerformed(string message);\r\n\r\n    constructor(address _superAdmin) {\r\n        superAdmin = _superAdmin;\r\n        roles[_superAdmin] = Role.SuperAdmin;\r\n        hasRole[_superAdmin] = true;\r\n    }\r\n\r\n    modifier onlyRole(Role _role) {\r\n        require(\r\n            hasRole[msg.sender],\r\n            \"Unauthorized: sender does not have a role\"\r\n        );\r\n        require(\r\n            roles[msg.sender] == _role,\r\n            \"Unauthorized: sender does not have required role\"\r\n        );\r\n        _;\r\n    }\r\n\r\n    function assignRole(address _user, Role _role) public {\r\n        if (roles[msg.sender] == Role.SuperAdmin) {\r\n            require(\r\n                _role == Role.AdminD || _role == Role.AdminI,\r\n                \"SuperAdmin can only assign Admin roles\"\r\n            );\r\n            if (!hasRole[_user]) {\r\n                if (_role == Role.AdminD) adminDs.push(_user);\r\n                if (_role == Role.AdminI) adminIs.push(_user);\r\n            }\r\n        } else if (\r\n            roles[msg.sender] == Role.AdminD &&\r\n            _role == Role.Doctor &&\r\n            !hasRole[_user]\r\n        ) {\r\n            doctors.push(_user);\r\n        } else if (\r\n            roles[msg.sender] == Role.AdminI &&\r\n            _role == Role.Insurance &&\r\n            !hasRole[_user]\r\n        ) {\r\n            insurances.push(_user);\r\n        } else {\r\n            revert(\r\n                \"Unauthorized: sender cannot assign roles or role already assigned\"\r\n            );\r\n        }\r\n        _assignRole(_user, _role);\r\n    }\r\n\r\n    function _assignRole(address _user, Role _role) internal {\r\n        roles[_user] = _role;\r\n        hasRole[_user] = true;\r\n    }\r\n\r\n    function _removeRole(address _user) internal {\r\n        hasRole[_user] = false; // Indicates the user no longer has any active role\r\n    }\r\n\r\n    function performActionAsDoctor() public onlyRole(Role.Doctor) {\r\n        emit ActionPerformed(\"I am doctor\");\r\n    }\r\n\r\n    function performAdminTask() public onlyRole(Role.AdminD) {\r\n        emit ActionPerformed(\"I am adminD\");\r\n    }\r\n\r\n    function performSuperAdminTask()\r\n        public\r\n        view\r\n        onlyRole(Role.SuperAdmin)\r\n        returns (string memory)\r\n    {\r\n        return \"I am super admin\";\r\n    }\r\n\r\n    function removeAddressFromArray(\r\n        address _user,\r\n        address[] storage array\r\n    ) internal {\r\n        for (uint i = 0; i < array.length; i++) {\r\n            if (array[i] == _user) {\r\n                array[i] = array[array.length - 1];\r\n                array.pop();\r\n                break;\r\n            }\r\n        }\r\n    }\r\n\r\n    function removeAdminD(address _user) public onlyRole(Role.SuperAdmin) {\r\n        if (roles[_user] == Role.AdminD) {\r\n            removeAddressFromArray(_user, adminDs);\r\n        }\r\n        _removeRole(_user);\r\n    }\r\n\r\n    function removeAdminI(address _user) public onlyRole(Role.SuperAdmin) {\r\n        if (roles[_user] == Role.AdminI) {\r\n            removeAddressFromArray(_user, adminIs);\r\n        }\r\n        _removeRole(_user);\r\n    }\r\n\r\n    function removeInsurance(address _user) public onlyRole(Role.AdminI) {\r\n        if (roles[_user] == Role.Insurance) {\r\n            removeAddressFromArray(_user, insurances);\r\n        }\r\n        _removeRole(_user);\r\n    }\r\n\r\n    function removeDoctor(address _user) public onlyRole(Role.AdminD) {\r\n        if (roles[_user] == Role.Doctor) {\r\n            removeAddressFromArray(_user, doctors);\r\n        }\r\n        _removeRole(_user);\r\n    }\r\n\r\n    // Generalized function to get CIDs for a list of addresses\r\n    function getCIDsByAddresses(address[] memory addresses) public view returns (string[] memory) {\r\n        string[] memory cids = new string[](addresses.length);\r\n        for (uint i = 0; i < addresses.length; i++) {\r\n            cids[i] = addressToCID[addresses[i]];\r\n        }\r\n        return cids;\r\n    }\r\n\r\n    // Convenience functions to fetch CIDs for specific groups\r\n    function getAllAdminDCIDs() public view returns (string[] memory) {\r\n        return getCIDsByAddresses(adminDs);\r\n    }\r\n\r\n    function getAllAdminICIDs() public view returns (string[] memory) {\r\n        return getCIDsByAddresses(adminIs);\r\n    }\r\n\r\n    function getAllDoctorCIDs() public view returns (string[] memory) {\r\n        return getCIDsByAddresses(doctors);\r\n    }\r\n\r\n    function getAllInsuranceCIDs() public view returns (string[] memory) {\r\n        return getCIDsByAddresses(insurances);\r\n    }\r\n\r\n    function getSuperAdmins() public view returns (address) {\r\n        return superAdmin;\r\n    }\r\n\r\n    function keepIPFSCID(address publicKey, uint8 slot, string memory ipfsCID) public onlyRole(Role.Doctor) {\r\n        require(hasAccessWrite(publicKey, msg.sender), \"Unauthorized: sender does not have a permission\");\r\n        publicKeyToIPFSCIDs[publicKey][slot].push(ipfsCID);\r\n        emit IPFSCIDMapped(publicKey, slot, ipfsCID);\r\n    }\r\n\r\n    function requestKeepIPFSCID(address publicKey, uint8 slot, string memory ipfsCID) public onlyRole(Role.Doctor) {\r\n        require(hasAccessWrite(publicKey, msg.sender), \"Unauthorized: sender does not have a permission\");\r\n        temporaryIPFSCIDs[msg.sender].push(TempIPFSCID({\r\n            publicKey: publicKey,\r\n            slot: slot,\r\n            ipfsCID: ipfsCID\r\n        }));\r\n    }\r\n\r\n    function approveTempIPFSCID(address doctor, uint index) public {\r\n        TempIPFSCID memory tempCID = temporaryIPFSCIDs[doctor][index];\r\n        require(hasAccessWrite(tempCID.publicKey, doctor), \"Unauthorized: sender does not have a permission\");\r\n        publicKeyToIPFSCIDs[tempCID.publicKey][tempCID.slot].push(tempCID.ipfsCID);\r\n        temporaryIPFSCIDs[doctor][index] = temporaryIPFSCIDs[doctor][temporaryIPFSCIDs[doctor].length - 1];\r\n        temporaryIPFSCIDs[doctor].pop();\r\n        emit IPFSCIDMapped(tempCID.publicKey, tempCID.slot, tempCID.ipfsCID);\r\n    }\r\n\r\n    function getIPFSCIDsByPublicKeyAndSlot(address publicKey, uint8 slot) public view returns (string[] memory) {\r\n        require(publicKey == msg.sender || hasAccessRead(publicKey, msg.sender), \"Unauthorized: sender does not have a permission\");\r\n        require(publicKeyToIPFSCIDs[publicKey][slot].length != 0, \"No IPFS CIDs found for this public key\");\r\n        return publicKeyToIPFSCIDs[publicKey][slot];\r\n    }\r\n\r\n    function getLastIPFSCIDsByPublicKeyAndSlot(address publicKey, uint8 slot) public view returns (string memory) {\r\n        require(publicKey == msg.sender || hasAccessRead(publicKey, msg.sender), \"Unauthorized: sender does not have a permission\");\r\n        require(publicKeyToIPFSCIDs[publicKey][slot].length != 0, \"No IPFS CIDs found for this public key\");\r\n        return publicKeyToIPFSCIDs[publicKey][slot][publicKeyToIPFSCIDs[publicKey][slot].length-1];\r\n    }\r\n\r\n    function requestAccess(address patient) public onlyRole(Role.Doctor) {\r\n        require(patient != msg.sender, \"Cannot request access to yourself\");\r\n\r\n        accessRequests[patient].push(AccessRequest({\r\n            doctor: msg.sender,\r\n            approved: false\r\n        }));\r\n\r\n        emit AccessRequested(patient, msg.sender);\r\n    }\r\n\r\n    function grantAccess(address doctor) public {\r\n        AccessRequest[] storage requests = accessRequests[msg.sender];\r\n        for (uint i = 0; i < requests.length; i++) {\r\n            if (requests[i].doctor == doctor && !requests[i].approved) {\r\n                requests[i].approved = true;\r\n                emit AccessGranted(msg.sender, doctor);\r\n                return;\r\n            }\r\n        }\r\n        revert(\"No access request found for the specified doctor\");\r\n    }\r\n\r\n    function revokeAccess(address doctor) public {\r\n        AccessRequest[] storage requests = accessRequests[msg.sender];\r\n        for (uint i = 0; i < requests.length; i++) {\r\n            if (requests[i].doctor == doctor) {\r\n                requests[i] = requests[requests.length - 1];\r\n                requests.pop();\r\n                emit AccessRevoked(msg.sender, doctor);\r\n                return;\r\n            }\r\n        }\r\n        revert(\"No access request found for the specified doctor\");\r\n    }\r\n\r\n    function hasAccessRead(address patient, address doctor) public view returns (bool) {\r\n        AccessRequest[] storage requests = accessRequests[patient];\r\n        for (uint i = 0; i < requests.length; i++) {\r\n            if (requests[i].doctor == doctor && requests[i].approved) {\r\n                return true;\r\n            }\r\n        }\r\n        return false;\r\n    }\r\n\r\n    function hasAccessWrite(address patient, address doctor) public view returns (bool) {\r\n        AccessWriteRequest[] storage requests = accessWriteRequests[patient];\r\n        for (uint i = 0; i < requests.length; i++) {\r\n            if (requests[i].doctor == doctor && requests[i].approved) {\r\n                return true;\r\n            }\r\n        }\r\n        return false;\r\n    }\r\n\r\n    function requestWriteAccess(address patient) public onlyRole(Role.Doctor) {\r\n        require(patient != msg.sender, \"Cannot request access to yourself\");\r\n\r\n        accessWriteRequests[patient].push(AccessWriteRequest({\r\n            doctor: msg.sender,\r\n            approved: false\r\n        }));\r\n\r\n        emit WriteAccessRequested(patient, msg.sender);\r\n    }\r\n\r\n    function grantWriteAccess(address doctor) public {\r\n        AccessWriteRequest[] storage requests = accessWriteRequests[msg.sender];\r\n        for (uint i = 0; i < requests.length; i++) {\r\n            if (requests[i].doctor == doctor && !requests[i].approved) {\r\n                requests[i].approved = true;\r\n                emit WriteAccessGranted(msg.sender, doctor);\r\n                return;\r\n            }\r\n        }\r\n        revert(\"No write access request found for the specified doctor\");\r\n    }\r\n\r\n    function revokeWriteAccess(address doctor) public {\r\n        AccessWriteRequest[] storage requests = accessWriteRequests[msg.sender];\r\n        for (uint i = 0; i < requests.length; i++) {\r\n            if (requests[i].doctor == doctor) {\r\n                requests[i] = requests[requests.length - 1];\r\n                requests.pop();\r\n                emit WriteAccessRevoked(msg.sender, doctor);\r\n                return;\r\n            }\r\n        }\r\n        revert(\"No write access request found for the specified doctor\");\r\n    }\r\n\r\n    function getAccessRequests() public view returns (AccessRequest[] memory) {\r\n        return accessRequests[msg.sender];\r\n    }\r\n\r\n    function getWriteAccessRequests() public view returns (AccessWriteRequest[] memory) {\r\n        return accessWriteRequests[msg.sender];\r\n    }\r\n}\r\n",
  "sourcePath": "C:\\Users\\nowze\\Desktop\\healthcare_api\\contracts\\role.sol",
  "compiler": {
    "name": "solc",
    "version": "0.8.21+commit.d9974bed.Emscripten.clang"
  },
  "schemaVersion": "3.4.16",
  "updatedAt": "2024-07-31T14:27:46.201Z",
  "networkType": "ethereum",
  "devdoc": {
    "kind": "dev",
    "methods": {},
    "version": 1
  },
  "userdoc": {
    "kind": "user",
    "methods": {},
    "version": 1
  }
}