{
  "contractName": "RoleBasedAccessControl",
  "abi": [
    {
      "inputs": [
        {
          "internalType": "address",
          "name": "_superAdmin",
          "type": "address"
        }
      ],
      "stateMutability": "nonpayable",
      "type": "constructor"
    },
    {
      "anonymous": false,
      "inputs": [
        {
          "indexed": false,
          "internalType": "address",
          "name": "patient",
          "type": "address"
        },
        {
          "indexed": false,
          "internalType": "address",
          "name": "doctor",
          "type": "address"
        }
      ],
      "name": "AccessGranted",
      "type": "event"
    },
    {
      "anonymous": false,
      "inputs": [
        {
          "indexed": false,
          "internalType": "address",
          "name": "patient",
          "type": "address"
        },
        {
          "indexed": false,
          "internalType": "address",
          "name": "doctor",
          "type": "address"
        }
      ],
      "name": "AccessRequested",
      "type": "event"
    },
    {
      "anonymous": false,
      "inputs": [
        {
          "indexed": false,
          "internalType": "address",
          "name": "patient",
          "type": "address"
        },
        {
          "indexed": false,
          "internalType": "address",
          "name": "doctor",
          "type": "address"
        }
      ],
      "name": "AccessRevoked",
      "type": "event"
    },
    {
      "anonymous": false,
      "inputs": [
        {
          "indexed": false,
          "internalType": "string",
          "name": "message",
          "type": "string"
        }
      ],
      "name": "ActionPerformed",
      "type": "event"
    },
    {
      "anonymous": false,
      "inputs": [
        {
          "indexed": false,
          "internalType": "string",
          "name": "cid",
          "type": "string"
        },
        {
          "indexed": false,
          "internalType": "string",
          "name": "publicKey",
          "type": "string"
        }
      ],
      "name": "CIDMapped",
      "type": "event"
    },
    {
      "anonymous": false,
      "inputs": [
        {
          "indexed": false,
          "internalType": "address",
          "name": "publicKey",
          "type": "address"
        },
        {
          "indexed": false,
          "internalType": "uint8",
          "name": "slot",
          "type": "uint8"
        },
        {
          "indexed": false,
          "internalType": "string",
          "name": "ipfsCID",
          "type": "string"
        }
      ],
      "name": "IPFSCIDMapped",
      "type": "event"
    },
    {
      "inputs": [
        {
          "internalType": "address",
          "name": "",
          "type": "address"
        },
        {
          "internalType": "uint256",
          "name": "",
          "type": "uint256"
        }
      ],
      "name": "accessRequests",
      "outputs": [
        {
          "internalType": "address",
          "name": "doctor",
          "type": "address"
        },
        {
          "internalType": "bool",
          "name": "approved",
          "type": "bool"
        }
      ],
      "stateMutability": "view",
      "type": "function",
      "constant": true
    },
    {
      "inputs": [
        {
          "internalType": "address",
          "name": "",
          "type": "address"
        }
      ],
      "name": "addressToCID",
      "outputs": [
        {
          "internalType": "string",
          "name": "",
          "type": "string"
        }
      ],
      "stateMutability": "view",
      "type": "function",
      "constant": true
    },
    {
      "inputs": [
        {
          "internalType": "address",
          "name": "",
          "type": "address"
        }
      ],
      "name": "hasRole",
      "outputs": [
        {
          "internalType": "bool",
          "name": "",
          "type": "bool"
        }
      ],
      "stateMutability": "view",
      "type": "function",
      "constant": true
    },
    {
      "inputs": [
        {
          "internalType": "address",
          "name": "",
          "type": "address"
        },
        {
          "internalType": "uint256",
          "name": "",
          "type": "uint256"
        }
      ],
      "name": "patientDataHistory",
      "outputs": [
        {
          "internalType": "string",
          "name": "",
          "type": "string"
        }
      ],
      "stateMutability": "view",
      "type": "function",
      "constant": true
    },
    {
      "inputs": [
        {
          "internalType": "address",
          "name": "",
          "type": "address"
        },
        {
          "internalType": "uint8",
          "name": "",
          "type": "uint8"
        },
        {
          "internalType": "uint256",
          "name": "",
          "type": "uint256"
        }
      ],
      "name": "publicKeyToIPFSCIDs",
      "outputs": [
        {
          "internalType": "string",
          "name": "",
          "type": "string"
        }
      ],
      "stateMutability": "view",
      "type": "function",
      "constant": true
    },
    {
      "inputs": [
        {
          "internalType": "address",
          "name": "",
          "type": "address"
        }
      ],
      "name": "roles",
      "outputs": [
        {
          "internalType": "enum RoleBasedAccessControl.Role",
          "name": "",
          "type": "uint8"
        }
      ],
      "stateMutability": "view",
      "type": "function",
      "constant": true
    },
    {
      "inputs": [],
      "name": "superAdmin",
      "outputs": [
        {
          "internalType": "address",
          "name": "",
          "type": "address"
        }
      ],
      "stateMutability": "view",
      "type": "function",
      "constant": true
    },
    {
      "inputs": [
        {
          "internalType": "string",
          "name": "cid",
          "type": "string"
        },
        {
          "internalType": "address",
          "name": "publicKey",
          "type": "address"
        }
      ],
      "name": "keepcid",
      "outputs": [],
      "stateMutability": "nonpayable",
      "type": "function"
    },
    {
      "inputs": [
        {
          "internalType": "address",
          "name": "_user",
          "type": "address"
        }
      ],
      "name": "getCIDByAddress",
      "outputs": [
        {
          "internalType": "string",
          "name": "",
          "type": "string"
        }
      ],
      "stateMutability": "view",
      "type": "function",
      "constant": true
    },
    {
      "inputs": [
        {
          "internalType": "address",
          "name": "_user",
          "type": "address"
        },
        {
          "internalType": "enum RoleBasedAccessControl.Role",
          "name": "_role",
          "type": "uint8"
        }
      ],
      "name": "assignRole",
      "outputs": [],
      "stateMutability": "nonpayable",
      "type": "function"
    },
    {
      "inputs": [],
      "name": "performActionAsDoctor",
      "outputs": [],
      "stateMutability": "nonpayable",
      "type": "function"
    },
    {
      "inputs": [],
      "name": "performAdminTask",
      "outputs": [],
      "stateMutability": "nonpayable",
      "type": "function"
    },
    {
      "inputs": [],
      "name": "performSuperAdminTask",
      "outputs": [
        {
          "internalType": "string",
          "name": "",
          "type": "string"
        }
      ],
      "stateMutability": "view",
      "type": "function",
      "constant": true
    },
    {
      "inputs": [
        {
          "internalType": "address",
          "name": "_user",
          "type": "address"
        }
      ],
      "name": "removeAdminD",
      "outputs": [],
      "stateMutability": "nonpayable",
      "type": "function"
    },
    {
      "inputs": [
        {
          "internalType": "address",
          "name": "_user",
          "type": "address"
        }
      ],
      "name": "removeAdminI",
      "outputs": [],
      "stateMutability": "nonpayable",
      "type": "function"
    },
    {
      "inputs": [
        {
          "internalType": "address",
          "name": "_user",
          "type": "address"
        }
      ],
      "name": "removeInsurance",
      "outputs": [],
      "stateMutability": "nonpayable",
      "type": "function"
    },
    {
      "inputs": [
        {
          "internalType": "address",
          "name": "_user",
          "type": "address"
        }
      ],
      "name": "removeDoctor",
      "outputs": [],
      "stateMutability": "nonpayable",
      "type": "function"
    },
    {
      "inputs": [
        {
          "internalType": "address[]",
          "name": "addresses",
          "type": "address[]"
        }
      ],
      "name": "getCIDsByAddresses",
      "outputs": [
        {
          "internalType": "string[]",
          "name": "",
          "type": "string[]"
        }
      ],
      "stateMutability": "view",
      "type": "function",
      "constant": true
    },
    {
      "inputs": [],
      "name": "getAllAdminDCIDs",
      "outputs": [
        {
          "internalType": "string[]",
          "name": "",
          "type": "string[]"
        }
      ],
      "stateMutability": "view",
      "type": "function",
      "constant": true
    },
    {
      "inputs": [],
      "name": "getAllAdminICIDs",
      "outputs": [
        {
          "internalType": "string[]",
          "name": "",
          "type": "string[]"
        }
      ],
      "stateMutability": "view",
      "type": "function",
      "constant": true
    },
    {
      "inputs": [],
      "name": "getAllDoctorCIDs",
      "outputs": [
        {
          "internalType": "string[]",
          "name": "",
          "type": "string[]"
        }
      ],
      "stateMutability": "view",
      "type": "function",
      "constant": true
    },
    {
      "inputs": [],
      "name": "getAllInsuranceCIDs",
      "outputs": [
        {
          "internalType": "string[]",
          "name": "",
          "type": "string[]"
        }
      ],
      "stateMutability": "view",
      "type": "function",
      "constant": true
    },
    {
      "inputs": [],
      "name": "getSuperAdmins",
      "outputs": [
        {
          "internalType": "address",
          "name": "",
          "type": "address"
        }
      ],
      "stateMutability": "view",
      "type": "function",
      "constant": true
    },
    {
      "inputs": [
        {
          "internalType": "address",
          "name": "publicKey",
          "type": "address"
        },
        {
          "internalType": "uint8",
          "name": "slot",
          "type": "uint8"
        },
        {
          "internalType": "string",
          "name": "ipfsCID",
          "type": "string"
        }
      ],
      "name": "keepIPFSCID",
      "outputs": [],
      "stateMutability": "nonpayable",
      "type": "function"
    },
    {
      "inputs": [
        {
          "internalType": "address",
          "name": "publicKey",
          "type": "address"
        },
        {
          "internalType": "uint8",
          "name": "slot",
          "type": "uint8"
        }
      ],
      "name": "getIPFSCIDsByPublicKeyAndSlot",
      "outputs": [
        {
          "internalType": "string[]",
          "name": "",
          "type": "string[]"
        }
      ],
      "stateMutability": "view",
      "type": "function",
      "constant": true
    },
    {
      "inputs": [
        {
          "internalType": "address",
          "name": "publicKey",
          "type": "address"
        },
        {
          "internalType": "uint8",
          "name": "slot",
          "type": "uint8"
        }
      ],
      "name": "getLastIPFSCIDsByPublicKeyAndSlot",
      "outputs": [
        {
          "internalType": "string",
          "name": "",
          "type": "string"
        }
      ],
      "stateMutability": "view",
      "type": "function",
      "constant": true
    },
    {
      "inputs": [
        {
          "internalType": "address",
          "name": "patient",
          "type": "address"
        }
      ],
      "name": "requestAccess",
      "outputs": [],
      "stateMutability": "nonpayable",
      "type": "function"
    },
    {
      "inputs": [
        {
          "internalType": "address",
          "name": "doctor",
          "type": "address"
        }
      ],
      "name": "grantAccess",
      "outputs": [],
      "stateMutability": "nonpayable",
      "type": "function"
    },
    {
      "inputs": [
        {
          "internalType": "address",
          "name": "doctor",
          "type": "address"
        }
      ],
      "name": "revokeAccess",
      "outputs": [],
      "stateMutability": "nonpayable",
      "type": "function"
    },
    {
      "inputs": [
        {
          "internalType": "address",
          "name": "patient",
          "type": "address"
        },
        {
          "internalType": "address",
          "name": "doctor",
          "type": "address"
        }
      ],
      "name": "hasAccess",
      "outputs": [
        {
          "internalType": "bool",
          "name": "",
          "type": "bool"
        }
      ],
      "stateMutability": "view",
      "type": "function",
      "constant": true
    },
    {
      "inputs": [],
      "name": "getAccessRequests",
      "outputs": [
        {
          "components": [
            {
              "internalType": "address",
              "name": "doctor",
              "type": "address"
            },
            {
              "internalType": "bool",
              "name": "approved",
              "type": "bool"
            }
          ],
          "internalType": "struct RoleBasedAccessControl.AccessRequest[]",
          "name": "",
          "type": "tuple[]"
        }
      ],
      "stateMutability": "view",
      "type": "function",
      "constant": true
    }
  ],
  "bytecode": "0x608060405234801562000010575f80fd5b50604051620047a8380380620047a883398181016040528101906200003691906200019d565b8060065f6101000a81548173ffffffffffffffffffffffffffffffffffffffff021916908373ffffffffffffffffffffffffffffffffffffffff16021790555060045f808373ffffffffffffffffffffffffffffffffffffffff1673ffffffffffffffffffffffffffffffffffffffff1681526020019081526020015f205f6101000a81548160ff02191690836005811115620000d857620000d7620001cd565b5b02179055506001805f8373ffffffffffffffffffffffffffffffffffffffff1673ffffffffffffffffffffffffffffffffffffffff1681526020019081526020015f205f6101000a81548160ff02191690831515021790555050620001fa565b5f80fd5b5f73ffffffffffffffffffffffffffffffffffffffff82169050919050565b5f62000167826200013c565b9050919050565b62000179816200015b565b811462000184575f80fd5b50565b5f8151905062000197816200016e565b92915050565b5f60208284031215620001b557620001b462000138565b5b5f620001c48482850162000187565b91505092915050565b7f4e487b71000000000000000000000000000000000000000000000000000000005f52602160045260245ffd5b6145a080620002085f395ff3fe608060405234801561000f575f80fd5b50600436106101e3575f3560e01c806355b63a941161010d5780639677f5d7116100a0578063ae460d7e1161006f578063ae460d7e1461057a578063d496cdd614610596578063e5a362cd146105b4578063ff62d246146105e4576101e3565b80639677f5d71461050857806398fc90e914610512578063993746421461052e578063acd58a7c1461055e576101e3565b80637ef09bca116100dc5780637ef09bca1461048257806381af8af3146104b2578063843d50ca146104e257806385e68531146104ec576101e3565b806355b63a94146103fa57806361da424f14610418578063630a195b146104485780636c7a924914610464576101e3565b8063120fa9ce1161018557806323503f2b1161015457806323503f2b1461038257806329575f6a146103a057806338f9b66a146103be5780635269a554146103dc576101e3565b8063120fa9ce146102d557806312c48710146103055780631709ef07146103215780631e7b301114610351576101e3565b80630af7fb14116101c15780630af7fb141461024f5780630c3ca3f71461026b5780630d75903d146102875780630d77e611146102a5576101e3565b8063022cb271146101e757806308e47640146102035780630ae5e73914610233575b5f80fd5b61020160048036038101906101fc9190613276565b610614565b005b61021d6004803603810190610218919061330a565b6108e8565b60405161022a91906133e4565b60405180910390f35b61024d60048036038101906102489190613276565b6109a4565b005b61026960048036038101906102649190613530565b610b5e565b005b61028560048036038101906102809190613276565b610da2565b005b61028f610f68565b60405161029c919061369f565b60405180910390f35b6102bf60048036038101906102ba91906136bf565b610ffb565b6040516102cc91906133e4565b60405180910390f35b6102ef60048036038101906102ea91906137c1565b61126f565b6040516102fc919061369f565b60405180910390f35b61031f600480360381019061031a9190613276565b6113e7565b005b61033b60048036038101906103369190613808565b6115ad565b6040516103489190613860565b60405180910390f35b61036b60048036038101906103669190613879565b6116c9565b6040516103799291906138c6565b60405180910390f35b61038a61172a565b604051610397919061369f565b60405180910390f35b6103a86117bd565b6040516103b591906138ed565b60405180910390f35b6103c66117e2565b6040516103d391906133e4565b60405180910390f35b6103e4611959565b6040516103f1919061369f565b60405180910390f35b6104026119ec565b60405161040f91906139f9565b60405180910390f35b610432600480360381019061042d91906136bf565b611aed565b60405161043f919061369f565b60405180910390f35b610462600480360381019061045d9190613a3c565b611d2a565b005b61046c6122a6565b60405161047991906138ed565b60405180910390f35b61049c60048036038101906104979190613276565b6122ce565b6040516104a99190613860565b60405180910390f35b6104cc60048036038101906104c79190613276565b6122eb565b6040516104d991906133e4565b60405180910390f35b6104ea612386565b005b61050660048036038101906105019190613276565b6124f7565b005b610510612779565b005b61052c60048036038101906105279190613276565b6128e9565b005b61054860048036038101906105439190613276565b612aae565b6040516105559190613aed565b60405180910390f35b61057860048036038101906105739190613b06565b612aca565b005b610594600480360381019061058f9190613276565b612b19565b005b61059e612cdf565b6040516105ab919061369f565b60405180910390f35b6105ce60048036038101906105c99190613879565b612d72565b6040516105db91906133e4565b60405180910390f35b6105fe60048036038101906105f99190613276565b612e23565b60405161060b91906133e4565b60405180910390f35b5f60015f3373ffffffffffffffffffffffffffffffffffffffff1673ffffffffffffffffffffffffffffffffffffffff1681526020019081526020015f205f9054906101000a900460ff1661069e576040517f08c379a000000000000000000000000000000000000000000000000000000000815260040161069590613bd0565b60405180910390fd5b8060058111156106b1576106b0613a7a565b5b5f803373ffffffffffffffffffffffffffffffffffffffff1673ffffffffffffffffffffffffffffffffffffffff1681526020019081526020015f205f9054906101000a900460ff16600581111561070c5761070b613a7a565b5b1461074c576040517f08c379a000000000000000000000000000000000000000000000000000000000815260040161074390613c5e565b60405180910390fd5b3373ffffffffffffffffffffffffffffffffffffffff168273ffffffffffffffffffffffffffffffffffffffff16036107ba576040517f08c379a00000000000000000000000000000000000000000000000000000000081526004016107b190613cec565b60405180910390fd5b600a5f8373ffffffffffffffffffffffffffffffffffffffff1673ffffffffffffffffffffffffffffffffffffffff1681526020019081526020015f2060405180604001604052803373ffffffffffffffffffffffffffffffffffffffff1681526020015f1515815250908060018154018082558091505060019003905f5260205f20015f909190919091505f820151815f015f6101000a81548173ffffffffffffffffffffffffffffffffffffffff021916908373ffffffffffffffffffffffffffffffffffffffff1602179055506020820151815f0160146101000a81548160ff02191690831515021790555050507f40c7749b16fdfb0d550f20273a7767875059d647af94f5a9610c63ad73dcc79f82336040516108dc929190613d0a565b60405180910390a15050565b6008602052825f5260405f20602052815f5260405f20818154811061090b575f80fd5b905f5260205f20015f925092505050805461092590613d5e565b80601f016020809104026020016040519081016040528092919081815260200182805461095190613d5e565b801561099c5780601f106109735761010080835404028352916020019161099c565b820191905f5260205f20905b81548152906001019060200180831161097f57829003601f168201915b505050505081565b5f600a5f3373ffffffffffffffffffffffffffffffffffffffff1673ffffffffffffffffffffffffffffffffffffffff1681526020019081526020015f2090505f5b8180549050811015610b1f578273ffffffffffffffffffffffffffffffffffffffff16828281548110610a1c57610a1b613d8e565b5b905f5260205f20015f015f9054906101000a900473ffffffffffffffffffffffffffffffffffffffff1673ffffffffffffffffffffffffffffffffffffffff16148015610a915750818181548110610a7757610a76613d8e565b5b905f5260205f20015f0160149054906101000a900460ff16155b15610b0c576001828281548110610aab57610aaa613d8e565b5b905f5260205f20015f0160146101000a81548160ff0219169083151502179055507f9f520b3bfc56d06f7065d10b4683b3f57ac8895d5026cd176dee95ce1454cb8d3384604051610afd929190613d0a565b60405180910390a15050610b5b565b8080610b1790613de8565b9150506109e6565b506040517f08c379a0000000000000000000000000000000000000000000000000000000008152600401610b5290613e9f565b60405180910390fd5b50565b5f60015f3373ffffffffffffffffffffffffffffffffffffffff1673ffffffffffffffffffffffffffffffffffffffff1681526020019081526020015f205f9054906101000a900460ff16610be8576040517f08c379a0000000000000000000000000000000000000000000000000000000008152600401610bdf90613bd0565b60405180910390fd5b806005811115610bfb57610bfa613a7a565b5b5f803373ffffffffffffffffffffffffffffffffffffffff1673ffffffffffffffffffffffffffffffffffffffff1681526020019081526020015f205f9054906101000a900460ff166005811115610c5657610c55613a7a565b5b14610c96576040517f08c379a0000000000000000000000000000000000000000000000000000000008152600401610c8d90613c5e565b60405180910390fd5b610ca084336115ad565b610cdf576040517f08c379a0000000000000000000000000000000000000000000000000000000008152600401610cd690613f2d565b60405180910390fd5b60085f8573ffffffffffffffffffffffffffffffffffffffff1673ffffffffffffffffffffffffffffffffffffffff1681526020019081526020015f205f8460ff1660ff1681526020019081526020015f2082908060018154018082558091505060019003905f5260205f20015f909190919091509081610d6091906140e8565b507f80ae59eb80bb311cfa25f7e9cbc109f47c6d3f07955577d8643cc8cce0db3aed848484604051610d94939291906141c6565b60405180910390a150505050565b600360015f3373ffffffffffffffffffffffffffffffffffffffff1673ffffffffffffffffffffffffffffffffffffffff1681526020019081526020015f205f9054906101000a900460ff16610e2d576040517f08c379a0000000000000000000000000000000000000000000000000000000008152600401610e2490613bd0565b60405180910390fd5b806005811115610e4057610e3f613a7a565b5b5f803373ffffffffffffffffffffffffffffffffffffffff1673ffffffffffffffffffffffffffffffffffffffff1681526020019081526020015f205f9054906101000a900460ff166005811115610e9b57610e9a613a7a565b5b14610edb576040517f08c379a0000000000000000000000000000000000000000000000000000000008152600401610ed290613c5e565b60405180910390fd5b60016005811115610eef57610eee613a7a565b5b5f808473ffffffffffffffffffffffffffffffffffffffff1673ffffffffffffffffffffffffffffffffffffffff1681526020019081526020015f205f9054906101000a900460ff166005811115610f4a57610f49613a7a565b5b03610f5b57610f5a826004612f7b565b5b610f64826130f9565b5050565b6060610ff66005805480602002602001604051908101604052809291908181526020018280548015610fec57602002820191905f5260205f20905b815f9054906101000a900473ffffffffffffffffffffffffffffffffffffffff1673ffffffffffffffffffffffffffffffffffffffff1681526020019060010190808311610fa3575b505050505061126f565b905090565b60603373ffffffffffffffffffffffffffffffffffffffff168373ffffffffffffffffffffffffffffffffffffffff16148061103d575061103c83336115ad565b5b61107c576040517f08c379a000000000000000000000000000000000000000000000000000000000815260040161107390613f2d565b60405180910390fd5b5f60085f8573ffffffffffffffffffffffffffffffffffffffff1673ffffffffffffffffffffffffffffffffffffffff1681526020019081526020015f205f8460ff1660ff1681526020019081526020015f208054905003611113576040517f08c379a000000000000000000000000000000000000000000000000000000000815260040161110a90614272565b60405180910390fd5b60085f8473ffffffffffffffffffffffffffffffffffffffff1673ffffffffffffffffffffffffffffffffffffffff1681526020019081526020015f205f8360ff1660ff1681526020019081526020015f20600160085f8673ffffffffffffffffffffffffffffffffffffffff1673ffffffffffffffffffffffffffffffffffffffff1681526020019081526020015f205f8560ff1660ff1681526020019081526020015f20805490506111c79190614290565b815481106111d8576111d7613d8e565b5b905f5260205f200180546111eb90613d5e565b80601f016020809104026020016040519081016040528092919081815260200182805461121790613d5e565b80156112625780601f1061123957610100808354040283529160200191611262565b820191905f5260205f20905b81548152906001019060200180831161124557829003601f168201915b5050505050905092915050565b60605f825167ffffffffffffffff81111561128d5761128c61340c565b5b6040519080825280602002602001820160405280156112c057816020015b60608152602001906001900390816112ab5790505b5090505f5b83518110156113dd5760075f8583815181106112e4576112e3613d8e565b5b602002602001015173ffffffffffffffffffffffffffffffffffffffff1673ffffffffffffffffffffffffffffffffffffffff1681526020019081526020015f20805461133090613d5e565b80601f016020809104026020016040519081016040528092919081815260200182805461135c90613d5e565b80156113a75780601f1061137e576101008083540402835291602001916113a7565b820191905f5260205f20905b81548152906001019060200180831161138a57829003601f168201915b50505050508282815181106113bf576113be613d8e565b5b602002602001018190525080806113d590613de8565b9150506112c5565b5080915050919050565b600460015f3373ffffffffffffffffffffffffffffffffffffffff1673ffffffffffffffffffffffffffffffffffffffff1681526020019081526020015f205f9054906101000a900460ff16611472576040517f08c379a000000000000000000000000000000000000000000000000000000000815260040161146990613bd0565b60405180910390fd5b80600581111561148557611484613a7a565b5b5f803373ffffffffffffffffffffffffffffffffffffffff1673ffffffffffffffffffffffffffffffffffffffff1681526020019081526020015f205f9054906101000a900460ff1660058111156114e0576114df613a7a565b5b14611520576040517f08c379a000000000000000000000000000000000000000000000000000000000815260040161151790613c5e565b60405180910390fd5b6002600581111561153457611533613a7a565b5b5f808473ffffffffffffffffffffffffffffffffffffffff1673ffffffffffffffffffffffffffffffffffffffff1681526020019081526020015f205f9054906101000a900460ff16600581111561158f5761158e613a7a565b5b036115a05761159f826002612f7b565b5b6115a9826130f9565b5050565b5f80600a5f8573ffffffffffffffffffffffffffffffffffffffff1673ffffffffffffffffffffffffffffffffffffffff1681526020019081526020015f2090505f5b81805490508110156116bd578373ffffffffffffffffffffffffffffffffffffffff1682828154811061162657611625613d8e565b5b905f5260205f20015f015f9054906101000a900473ffffffffffffffffffffffffffffffffffffffff1673ffffffffffffffffffffffffffffffffffffffff1614801561169a575081818154811061168157611680613d8e565b5b905f5260205f20015f0160149054906101000a900460ff165b156116aa576001925050506116c3565b80806116b590613de8565b9150506115f0565b505f9150505b92915050565b600a602052815f5260405f2081815481106116e2575f80fd5b905f5260205f20015f9150915050805f015f9054906101000a900473ffffffffffffffffffffffffffffffffffffffff1690805f0160149054906101000a900460ff16905082565b60606117b860048054806020026020016040519081016040528092919081815260200182805480156117ae57602002820191905f5260205f20905b815f9054906101000a900473ffffffffffffffffffffffffffffffffffffffff1673ffffffffffffffffffffffffffffffffffffffff1681526020019060010190808311611765575b505050505061126f565b905090565b60065f9054906101000a900473ffffffffffffffffffffffffffffffffffffffff1681565b6060600460015f3373ffffffffffffffffffffffffffffffffffffffff1673ffffffffffffffffffffffffffffffffffffffff1681526020019081526020015f205f9054906101000a900460ff1661186f576040517f08c379a000000000000000000000000000000000000000000000000000000000815260040161186690613bd0565b60405180910390fd5b80600581111561188257611881613a7a565b5b5f803373ffffffffffffffffffffffffffffffffffffffff1673ffffffffffffffffffffffffffffffffffffffff1681526020019081526020015f205f9054906101000a900460ff1660058111156118dd576118dc613a7a565b5b1461191d576040517f08c379a000000000000000000000000000000000000000000000000000000000815260040161191490613c5e565b60405180910390fd5b6040518060400160405280601081526020017f4920616d2073757065722061646d696e0000000000000000000000000000000081525091505090565b60606119e760038054806020026020016040519081016040528092919081815260200182805480156119dd57602002820191905f5260205f20905b815f9054906101000a900473ffffffffffffffffffffffffffffffffffffffff1673ffffffffffffffffffffffffffffffffffffffff1681526020019060010190808311611994575b505050505061126f565b905090565b6060600a5f3373ffffffffffffffffffffffffffffffffffffffff1673ffffffffffffffffffffffffffffffffffffffff1681526020019081526020015f20805480602002602001604051908101604052809291908181526020015f905b82821015611ae4578382905f5260205f20016040518060400160405290815f82015f9054906101000a900473ffffffffffffffffffffffffffffffffffffffff1673ffffffffffffffffffffffffffffffffffffffff1673ffffffffffffffffffffffffffffffffffffffff1681526020015f820160149054906101000a900460ff16151515158152505081526020019060010190611a4a565b50505050905090565b60603373ffffffffffffffffffffffffffffffffffffffff168373ffffffffffffffffffffffffffffffffffffffff161480611b2f5750611b2e83336115ad565b5b611b6e576040517f08c379a0000000000000000000000000000000000000000000000000000000008152600401611b6590613f2d565b60405180910390fd5b5f60085f8573ffffffffffffffffffffffffffffffffffffffff1673ffffffffffffffffffffffffffffffffffffffff1681526020019081526020015f205f8460ff1660ff1681526020019081526020015f208054905003611c05576040517f08c379a0000000000000000000000000000000000000000000000000000000008152600401611bfc90614272565b60405180910390fd5b60085f8473ffffffffffffffffffffffffffffffffffffffff1673ffffffffffffffffffffffffffffffffffffffff1681526020019081526020015f205f8360ff1660ff1681526020019081526020015f20805480602002602001604051908101604052809291908181526020015f905b82821015611d1e578382905f5260205f20018054611c9390613d5e565b80601f0160208091040260200160405190810160405280929190818152602001828054611cbf90613d5e565b8015611d0a5780601f10611ce157610100808354040283529160200191611d0a565b820191905f5260205f20905b815481529060010190602001808311611ced57829003601f168201915b505050505081526020019060010190611c76565b50505050905092915050565b60046005811115611d3e57611d3d613a7a565b5b5f803373ffffffffffffffffffffffffffffffffffffffff1673ffffffffffffffffffffffffffffffffffffffff1681526020019081526020015f205f9054906101000a900460ff166005811115611d9957611d98613a7a565b5b03611fa25760026005811115611db257611db1613a7a565b5b816005811115611dc557611dc4613a7a565b5b1480611df5575060036005811115611de057611ddf613a7a565b5b816005811115611df357611df2613a7a565b5b145b611e34576040517f08c379a0000000000000000000000000000000000000000000000000000000008152600401611e2b90614333565b60405180910390fd5b60015f8373ffffffffffffffffffffffffffffffffffffffff1673ffffffffffffffffffffffffffffffffffffffff1681526020019081526020015f205f9054906101000a900460ff16611f9d5760026005811115611e9657611e95613a7a565b5b816005811115611ea957611ea8613a7a565b5b03611f0f57600282908060018154018082558091505060019003905f5260205f20015f9091909190916101000a81548173ffffffffffffffffffffffffffffffffffffffff021916908373ffffffffffffffffffffffffffffffffffffffff1602179055505b60036005811115611f2357611f22613a7a565b5b816005811115611f3657611f35613a7a565b5b03611f9c57600382908060018154018082558091505060019003905f5260205f20015f9091909190916101000a81548173ffffffffffffffffffffffffffffffffffffffff021916908373ffffffffffffffffffffffffffffffffffffffff1602179055505b5b612298565b60026005811115611fb657611fb5613a7a565b5b5f803373ffffffffffffffffffffffffffffffffffffffff1673ffffffffffffffffffffffffffffffffffffffff1681526020019081526020015f205f9054906101000a900460ff16600581111561201157612010613a7a565b5b14801561204157505f600581111561202c5761202b613a7a565b5b81600581111561203f5761203e613a7a565b5b145b8015612094575060015f8373ffffffffffffffffffffffffffffffffffffffff1673ffffffffffffffffffffffffffffffffffffffff1681526020019081526020015f205f9054906101000a900460ff16155b156120fe57600582908060018154018082558091505060019003905f5260205f20015f9091909190916101000a81548173ffffffffffffffffffffffffffffffffffffffff021916908373ffffffffffffffffffffffffffffffffffffffff160217905550612297565b6003600581111561211257612111613a7a565b5b5f803373ffffffffffffffffffffffffffffffffffffffff1673ffffffffffffffffffffffffffffffffffffffff1681526020019081526020015f205f9054906101000a900460ff16600581111561216d5761216c613a7a565b5b14801561219e57506001600581111561218957612188613a7a565b5b81600581111561219c5761219b613a7a565b5b145b80156121f1575060015f8373ffffffffffffffffffffffffffffffffffffffff1673ffffffffffffffffffffffffffffffffffffffff1681526020019081526020015f205f9054906101000a900460ff16155b1561225b57600482908060018154018082558091505060019003905f5260205f20015f9091909190916101000a81548173ffffffffffffffffffffffffffffffffffffffff021916908373ffffffffffffffffffffffffffffffffffffffff160217905550612296565b6040517f08c379a000000000000000000000000000000000000000000000000000000000815260040161228d906143e7565b60405180910390fd5b5b5b6122a28282613150565b5050565b5f60065f9054906101000a900473ffffffffffffffffffffffffffffffffffffffff16905090565b6001602052805f5260405f205f915054906101000a900460ff1681565b6007602052805f5260405f205f91509050805461230790613d5e565b80601f016020809104026020016040519081016040528092919081815260200182805461233390613d5e565b801561237e5780601f106123555761010080835404028352916020019161237e565b820191905f5260205f20905b81548152906001019060200180831161236157829003601f168201915b505050505081565b600260015f3373ffffffffffffffffffffffffffffffffffffffff1673ffffffffffffffffffffffffffffffffffffffff1681526020019081526020015f205f9054906101000a900460ff16612411576040517f08c379a000000000000000000000000000000000000000000000000000000000815260040161240890613bd0565b60405180910390fd5b80600581111561242457612423613a7a565b5b5f803373ffffffffffffffffffffffffffffffffffffffff1673ffffffffffffffffffffffffffffffffffffffff1681526020019081526020015f205f9054906101000a900460ff16600581111561247f5761247e613a7a565b5b146124bf576040517f08c379a00000000000000000000000000000000000000000000000000000000081526004016124b690613c5e565b60405180910390fd5b7fa380f0b7ee635659644dd1aaeb442a4a549248c644a0ae23dce219ffd09548936040516124ec9061444f565b60405180910390a150565b5f600a5f3373ffffffffffffffffffffffffffffffffffffffff1673ffffffffffffffffffffffffffffffffffffffff1681526020019081526020015f2090505f5b818054905081101561273a578273ffffffffffffffffffffffffffffffffffffffff1682828154811061256f5761256e613d8e565b5b905f5260205f20015f015f9054906101000a900473ffffffffffffffffffffffffffffffffffffffff1673ffffffffffffffffffffffffffffffffffffffff16036127275781600183805490506125c69190614290565b815481106125d7576125d6613d8e565b5b905f5260205f20018282815481106125f2576125f1613d8e565b5b905f5260205f20015f82015f9054906101000a900473ffffffffffffffffffffffffffffffffffffffff16815f015f6101000a81548173ffffffffffffffffffffffffffffffffffffffff021916908373ffffffffffffffffffffffffffffffffffffffff1602179055505f820160149054906101000a900460ff16815f0160146101000a81548160ff0219169083151502179055509050508180548061269c5761269b61446d565b5b600190038181905f5260205f20015f8082015f6101000a81549073ffffffffffffffffffffffffffffffffffffffff02191690555f820160146101000a81549060ff0219169055505090557f825c8be24eb0df19500f63e86c29e7d0d951e73056b889b891d85e40938d9b6e3384604051612718929190613d0a565b60405180910390a15050612776565b808061273290613de8565b915050612539565b506040517f08c379a000000000000000000000000000000000000000000000000000000000815260040161276d90613e9f565b60405180910390fd5b50565b5f60015f3373ffffffffffffffffffffffffffffffffffffffff1673ffffffffffffffffffffffffffffffffffffffff1681526020019081526020015f205f9054906101000a900460ff16612803576040517f08c379a00000000000000000000000000000000000000000000000000000000081526004016127fa90613bd0565b60405180910390fd5b80600581111561281657612815613a7a565b5b5f803373ffffffffffffffffffffffffffffffffffffffff1673ffffffffffffffffffffffffffffffffffffffff1681526020019081526020015f205f9054906101000a900460ff16600581111561287157612870613a7a565b5b146128b1576040517f08c379a00000000000000000000000000000000000000000000000000000000081526004016128a890613c5e565b60405180910390fd5b7fa380f0b7ee635659644dd1aaeb442a4a549248c644a0ae23dce219ffd09548936040516128de906144e4565b60405180910390a150565b600260015f3373ffffffffffffffffffffffffffffffffffffffff1673ffffffffffffffffffffffffffffffffffffffff1681526020019081526020015f205f9054906101000a900460ff16612974576040517f08c379a000000000000000000000000000000000000000000000000000000000815260040161296b90613bd0565b60405180910390fd5b80600581111561298757612986613a7a565b5b5f803373ffffffffffffffffffffffffffffffffffffffff1673ffffffffffffffffffffffffffffffffffffffff1681526020019081526020015f205f9054906101000a900460ff1660058111156129e2576129e1613a7a565b5b14612a22576040517f08c379a0000000000000000000000000000000000000000000000000000000008152600401612a1990613c5e565b60405180910390fd5b5f6005811115612a3557612a34613a7a565b5b5f808473ffffffffffffffffffffffffffffffffffffffff1673ffffffffffffffffffffffffffffffffffffffff1681526020019081526020015f205f9054906101000a900460ff166005811115612a9057612a8f613a7a565b5b03612aa157612aa0826005612f7b565b5b612aaa826130f9565b5050565b5f602052805f5260405f205f915054906101000a900460ff1681565b8160075f8373ffffffffffffffffffffffffffffffffffffffff1673ffffffffffffffffffffffffffffffffffffffff1681526020019081526020015f209081612b1491906140e8565b505050565b600460015f3373ffffffffffffffffffffffffffffffffffffffff1673ffffffffffffffffffffffffffffffffffffffff1681526020019081526020015f205f9054906101000a900460ff16612ba4576040517f08c379a0000000000000000000000000000000000000000000000000000000008152600401612b9b90613bd0565b60405180910390fd5b806005811115612bb757612bb6613a7a565b5b5f803373ffffffffffffffffffffffffffffffffffffffff1673ffffffffffffffffffffffffffffffffffffffff1681526020019081526020015f205f9054906101000a900460ff166005811115612c1257612c11613a7a565b5b14612c52576040517f08c379a0000000000000000000000000000000000000000000000000000000008152600401612c4990613c5e565b60405180910390fd5b60036005811115612c6657612c65613a7a565b5b5f808473ffffffffffffffffffffffffffffffffffffffff1673ffffffffffffffffffffffffffffffffffffffff1681526020019081526020015f205f9054906101000a900460ff166005811115612cc157612cc0613a7a565b5b03612cd257612cd1826003612f7b565b5b612cdb826130f9565b5050565b6060612d6d6002805480602002602001604051908101604052809291908181526020018280548015612d6357602002820191905f5260205f20905b815f9054906101000a900473ffffffffffffffffffffffffffffffffffffffff1673ffffffffffffffffffffffffffffffffffffffff1681526020019060010190808311612d1a575b505050505061126f565b905090565b6009602052815f5260405f208181548110612d8b575f80fd5b905f5260205f20015f91509150508054612da490613d5e565b80601f0160208091040260200160405190810160405280929190818152602001828054612dd090613d5e565b8015612e1b5780601f10612df257610100808354040283529160200191612e1b565b820191905f5260205f20905b815481529060010190602001808311612dfe57829003601f168201915b505050505081565b60605f60075f8473ffffffffffffffffffffffffffffffffffffffff1673ffffffffffffffffffffffffffffffffffffffff1681526020019081526020015f208054612e6e90613d5e565b905003612eb0576040517f08c379a0000000000000000000000000000000000000000000000000000000008152600401612ea79061454c565b60405180910390fd5b60075f8373ffffffffffffffffffffffffffffffffffffffff1673ffffffffffffffffffffffffffffffffffffffff1681526020019081526020015f208054612ef890613d5e565b80601f0160208091040260200160405190810160405280929190818152602001828054612f2490613d5e565b8015612f6f5780601f10612f4657610100808354040283529160200191612f6f565b820191905f5260205f20905b815481529060010190602001808311612f5257829003601f168201915b50505050509050919050565b5f5b81805490508110156130f4578273ffffffffffffffffffffffffffffffffffffffff16828281548110612fb357612fb2613d8e565b5b905f5260205f20015f9054906101000a900473ffffffffffffffffffffffffffffffffffffffff1673ffffffffffffffffffffffffffffffffffffffff16036130e15781600183805490506130089190614290565b8154811061301957613018613d8e565b5b905f5260205f20015f9054906101000a900473ffffffffffffffffffffffffffffffffffffffff1682828154811061305457613053613d8e565b5b905f5260205f20015f6101000a81548173ffffffffffffffffffffffffffffffffffffffff021916908373ffffffffffffffffffffffffffffffffffffffff160217905550818054806130aa576130a961446d565b5b600190038181905f5260205f20015f6101000a81549073ffffffffffffffffffffffffffffffffffffffff021916905590556130f4565b80806130ec90613de8565b915050612f7d565b505050565b5f60015f8373ffffffffffffffffffffffffffffffffffffffff1673ffffffffffffffffffffffffffffffffffffffff1681526020019081526020015f205f6101000a81548160ff02191690831515021790555050565b805f808473ffffffffffffffffffffffffffffffffffffffff1673ffffffffffffffffffffffffffffffffffffffff1681526020019081526020015f205f6101000a81548160ff021916908360058111156131ae576131ad613a7a565b5b02179055506001805f8473ffffffffffffffffffffffffffffffffffffffff1673ffffffffffffffffffffffffffffffffffffffff1681526020019081526020015f205f6101000a81548160ff0219169083151502179055505050565b5f604051905090565b5f80fd5b5f80fd5b5f73ffffffffffffffffffffffffffffffffffffffff82169050919050565b5f6132458261321c565b9050919050565b6132558161323b565b811461325f575f80fd5b50565b5f813590506132708161324c565b92915050565b5f6020828403121561328b5761328a613214565b5b5f61329884828501613262565b91505092915050565b5f60ff82169050919050565b6132b6816132a1565b81146132c0575f80fd5b50565b5f813590506132d1816132ad565b92915050565b5f819050919050565b6132e9816132d7565b81146132f3575f80fd5b50565b5f81359050613304816132e0565b92915050565b5f805f6060848603121561332157613320613214565b5b5f61332e86828701613262565b935050602061333f868287016132c3565b9250506040613350868287016132f6565b9150509250925092565b5f81519050919050565b5f82825260208201905092915050565b5f5b83811015613391578082015181840152602081019050613376565b5f8484015250505050565b5f601f19601f8301169050919050565b5f6133b68261335a565b6133c08185613364565b93506133d0818560208601613374565b6133d98161339c565b840191505092915050565b5f6020820190508181035f8301526133fc81846133ac565b905092915050565b5f80fd5b5f80fd5b7f4e487b71000000000000000000000000000000000000000000000000000000005f52604160045260245ffd5b6134428261339c565b810181811067ffffffffffffffff821117156134615761346061340c565b5b80604052505050565b5f61347361320b565b905061347f8282613439565b919050565b5f67ffffffffffffffff82111561349e5761349d61340c565b5b6134a78261339c565b9050602081019050919050565b828183375f83830152505050565b5f6134d46134cf84613484565b61346a565b9050828152602081018484840111156134f0576134ef613408565b5b6134fb8482856134b4565b509392505050565b5f82601f83011261351757613516613404565b5b81356135278482602086016134c2565b91505092915050565b5f805f6060848603121561354757613546613214565b5b5f61355486828701613262565b9350506020613565868287016132c3565b925050604084013567ffffffffffffffff81111561358657613585613218565b5b61359286828701613503565b9150509250925092565b5f81519050919050565b5f82825260208201905092915050565b5f819050602082019050919050565b5f82825260208201905092915050565b5f6135df8261335a565b6135e981856135c5565b93506135f9818560208601613374565b6136028161339c565b840191505092915050565b5f61361883836135d5565b905092915050565b5f602082019050919050565b5f6136368261359c565b61364081856135a6565b935083602082028501613652856135b6565b805f5b8581101561368d578484038952815161366e858261360d565b945061367983613620565b925060208a01995050600181019050613655565b50829750879550505050505092915050565b5f6020820190508181035f8301526136b7818461362c565b905092915050565b5f80604083850312156136d5576136d4613214565b5b5f6136e285828601613262565b92505060206136f3858286016132c3565b9150509250929050565b5f67ffffffffffffffff8211156137175761371661340c565b5b602082029050602081019050919050565b5f80fd5b5f61373e613739846136fd565b61346a565b9050808382526020820190506020840283018581111561376157613760613728565b5b835b8181101561378a57806137768882613262565b845260208401935050602081019050613763565b5050509392505050565b5f82601f8301126137a8576137a7613404565b5b81356137b884826020860161372c565b91505092915050565b5f602082840312156137d6576137d5613214565b5b5f82013567ffffffffffffffff8111156137f3576137f2613218565b5b6137ff84828501613794565b91505092915050565b5f806040838503121561381e5761381d613214565b5b5f61382b85828601613262565b925050602061383c85828601613262565b9150509250929050565b5f8115159050919050565b61385a81613846565b82525050565b5f6020820190506138735f830184613851565b92915050565b5f806040838503121561388f5761388e613214565b5b5f61389c85828601613262565b92505060206138ad858286016132f6565b9150509250929050565b6138c08161323b565b82525050565b5f6040820190506138d95f8301856138b7565b6138e66020830184613851565b9392505050565b5f6020820190506139005f8301846138b7565b92915050565b5f81519050919050565b5f82825260208201905092915050565b5f819050602082019050919050565b6139388161323b565b82525050565b61394781613846565b82525050565b604082015f8201516139615f85018261392f565b506020820151613974602085018261393e565b50505050565b5f613985838361394d565b60408301905092915050565b5f602082019050919050565b5f6139a782613906565b6139b18185613910565b93506139bc83613920565b805f5b838110156139ec5781516139d3888261397a565b97506139de83613991565b9250506001810190506139bf565b5085935050505092915050565b5f6020820190508181035f830152613a11818461399d565b905092915050565b60068110613a25575f80fd5b50565b5f81359050613a3681613a19565b92915050565b5f8060408385031215613a5257613a51613214565b5b5f613a5f85828601613262565b9250506020613a7085828601613a28565b9150509250929050565b7f4e487b71000000000000000000000000000000000000000000000000000000005f52602160045260245ffd5b60068110613ab857613ab7613a7a565b5b50565b5f819050613ac882613aa7565b919050565b5f613ad782613abb565b9050919050565b613ae781613acd565b82525050565b5f602082019050613b005f830184613ade565b92915050565b5f8060408385031215613b1c57613b1b613214565b5b5f83013567ffffffffffffffff811115613b3957613b38613218565b5b613b4585828601613503565b9250506020613b5685828601613262565b9150509250929050565b7f556e617574686f72697a65643a2073656e64657220646f6573206e6f742068615f8201527f7665206120726f6c650000000000000000000000000000000000000000000000602082015250565b5f613bba602983613364565b9150613bc582613b60565b604082019050919050565b5f6020820190508181035f830152613be781613bae565b9050919050565b7f556e617574686f72697a65643a2073656e64657220646f6573206e6f742068615f8201527f766520726571756972656420726f6c6500000000000000000000000000000000602082015250565b5f613c48603083613364565b9150613c5382613bee565b604082019050919050565b5f6020820190508181035f830152613c7581613c3c565b9050919050565b7f43616e6e6f7420726571756573742061636365737320746f20796f757273656c5f8201527f6600000000000000000000000000000000000000000000000000000000000000602082015250565b5f613cd6602183613364565b9150613ce182613c7c565b604082019050919050565b5f6020820190508181035f830152613d0381613cca565b9050919050565b5f604082019050613d1d5f8301856138b7565b613d2a60208301846138b7565b9392505050565b7f4e487b71000000000000000000000000000000000000000000000000000000005f52602260045260245ffd5b5f6002820490506001821680613d7557607f821691505b602082108103613d8857613d87613d31565b5b50919050565b7f4e487b71000000000000000000000000000000000000000000000000000000005f52603260045260245ffd5b7f4e487b71000000000000000000000000000000000000000000000000000000005f52601160045260245ffd5b5f613df2826132d7565b91507fffffffffffffffffffffffffffffffffffffffffffffffffffffffffffffffff8203613e2457613e23613dbb565b5b600182019050919050565b7f4e6f20616363657373207265717565737420666f756e6420666f7220746865205f8201527f73706563696669656420646f63746f7200000000000000000000000000000000602082015250565b5f613e89603083613364565b9150613e9482613e2f565b604082019050919050565b5f6020820190508181035f830152613eb681613e7d565b9050919050565b7f556e617574686f72697a65643a2073656e64657220646f6573206e6f742068615f8201527f76652061207065726d697373696f6e0000000000000000000000000000000000602082015250565b5f613f17602f83613364565b9150613f2282613ebd565b604082019050919050565b5f6020820190508181035f830152613f4481613f0b565b9050919050565b5f819050815f5260205f209050919050565b5f6020601f8301049050919050565b5f82821b905092915050565b5f60088302613fa77fffffffffffffffffffffffffffffffffffffffffffffffffffffffffffffffff82613f6c565b613fb18683613f6c565b95508019841693508086168417925050509392505050565b5f819050919050565b5f613fec613fe7613fe2846132d7565b613fc9565b6132d7565b9050919050565b5f819050919050565b61400583613fd2565b61401961401182613ff3565b848454613f78565b825550505050565b5f90565b61402d614021565b614038818484613ffc565b505050565b5b8181101561405b576140505f82614025565b60018101905061403e565b5050565b601f8211156140a05761407181613f4b565b61407a84613f5d565b81016020851015614089578190505b61409d61409585613f5d565b83018261403d565b50505b505050565b5f82821c905092915050565b5f6140c05f19846008026140a5565b1980831691505092915050565b5f6140d883836140b1565b9150826002028217905092915050565b6140f18261335a565b67ffffffffffffffff81111561410a5761410961340c565b5b6141148254613d5e565b61411f82828561405f565b5f60209050601f831160018114614150575f841561413e578287015190505b61414885826140cd565b8655506141af565b601f19841661415e86613f4b565b5f5b8281101561418557848901518255600182019150602085019450602081019050614160565b868310156141a2578489015161419e601f8916826140b1565b8355505b6001600288020188555050505b505050505050565b6141c0816132a1565b82525050565b5f6060820190506141d95f8301866138b7565b6141e660208301856141b7565b81810360408301526141f881846133ac565b9050949350505050565b7f4e6f2049504653204349447320666f756e6420666f722074686973207075626c5f8201527f6963206b65790000000000000000000000000000000000000000000000000000602082015250565b5f61425c602683613364565b915061426782614202565b604082019050919050565b5f6020820190508181035f83015261428981614250565b9050919050565b5f61429a826132d7565b91506142a5836132d7565b92508282039050818111156142bd576142bc613dbb565b5b92915050565b7f537570657241646d696e2063616e206f6e6c792061737369676e2041646d696e5f8201527f20726f6c65730000000000000000000000000000000000000000000000000000602082015250565b5f61431d602683613364565b9150614328826142c3565b604082019050919050565b5f6020820190508181035f83015261434a81614311565b9050919050565b7f556e617574686f72697a65643a2073656e6465722063616e6e6f7420617373695f8201527f676e20726f6c6573206f7220726f6c6520616c72656164792061737369676e6560208201527f6400000000000000000000000000000000000000000000000000000000000000604082015250565b5f6143d1604183613364565b91506143dc82614351565b606082019050919050565b5f6020820190508181035f8301526143fe816143c5565b9050919050565b7f4920616d2061646d696e440000000000000000000000000000000000000000005f82015250565b5f614439600b83613364565b915061444482614405565b602082019050919050565b5f6020820190508181035f8301526144668161442d565b9050919050565b7f4e487b71000000000000000000000000000000000000000000000000000000005f52603160045260245ffd5b7f4920616d20646f63746f720000000000000000000000000000000000000000005f82015250565b5f6144ce600b83613364565b91506144d98261449a565b602082019050919050565b5f6020820190508181035f8301526144fb816144c2565b9050919050565b7f4e6f2043494420666f756e6420666f72207468697320616464726573730000005f82015250565b5f614536601d83613364565b915061454182614502565b602082019050919050565b5f6020820190508181035f8301526145638161452a565b905091905056fea26469706673582212206f859ecd87f23622ce7018a7ad8490b97e6dfa55d0845e4cdba52389db55bccb64736f6c63430008150033",
  "immutableReferences": {},
  "source": "// SPDX-License-Identifier: MIT\r\npragma solidity ^0.8.0;\r\n\r\ncontract RoleBasedAccessControl {\r\n    enum Role {\r\n        Doctor,\r\n        Insurance,\r\n        AdminD,\r\n        AdminI,\r\n        SuperAdmin,\r\n        Patient\r\n    }\r\n\r\n    // Mapping from address to role\r\n    mapping(address => Role) public roles;\r\n    // Mapping to check if an address has a role\r\n    mapping(address => bool) public hasRole;\r\n\r\n    // Separate storage for admins\r\n    address[] private adminDs;\r\n\r\n    address[] private adminIs;\r\n\r\n    address[] private insurances;\r\n\r\n    address[] private doctors;\r\n\r\n    address public superAdmin;\r\n\r\n    struct AccessRequest {\r\n    address doctor;\r\n    bool approved;\r\n    }\r\n\r\n    // Mapping from CID to public key\r\n    mapping(address => string) public addressToCID;\r\n    // Mapping from public key to a mapping of slots to arrays of IPFS CIDs\r\n    mapping(address => mapping(uint8 => string[])) public publicKeyToIPFSCIDs;\r\n\r\n    // Event to emit when a new mapping is created\r\n    event CIDMapped(string cid, string publicKey);\r\n    event IPFSCIDMapped(address publicKey, uint8 slot, string ipfsCID);\r\n\r\n    mapping(address => string[]) public patientDataHistory; // Mapping from user address to array of data CIDs\r\n\r\n    mapping(address => AccessRequest[]) public accessRequests;\r\n\r\n    event AccessRequested(address patient, address doctor);\r\n    event AccessGranted(address patient, address doctor);\r\n    event AccessRevoked(address patient, address doctor);\r\n\r\n\r\n\r\n    // Function to map a CID to a public key\r\n    function keepcid(string memory cid, address publicKey) public {\r\n        addressToCID[publicKey] = cid;\r\n    }\r\n\r\n    function getCIDByAddress(\r\n        address _user\r\n    ) public view returns (string memory) {\r\n        require(\r\n            bytes(addressToCID[_user]).length != 0,\r\n            \"No CID found for this address\"\r\n        );\r\n        return addressToCID[_user];\r\n    }\r\n\r\n    // Event declaration\r\n    event ActionPerformed(string message);\r\n\r\n    constructor(address _superAdmin) {\r\n        superAdmin = _superAdmin;\r\n        roles[_superAdmin] = Role.SuperAdmin;\r\n        hasRole[_superAdmin] = true;\r\n    }\r\n\r\n    modifier onlyRole(Role _role) {\r\n        require(\r\n            hasRole[msg.sender],\r\n            \"Unauthorized: sender does not have a role\"\r\n        );\r\n        require(\r\n            roles[msg.sender] == _role,\r\n            \"Unauthorized: sender does not have required role\"\r\n        );\r\n        _;\r\n    }\r\n\r\n    function assignRole(address _user, Role _role) public {\r\n        if (roles[msg.sender] == Role.SuperAdmin) {\r\n            require(\r\n                _role == Role.AdminD || _role == Role.AdminI,\r\n                \"SuperAdmin can only assign Admin roles\"\r\n            );\r\n            if (!hasRole[_user]) {\r\n                if (_role == Role.AdminD) adminDs.push(_user);\r\n                if (_role == Role.AdminI) adminIs.push(_user);\r\n            }\r\n        } else if (\r\n            roles[msg.sender] == Role.AdminD &&\r\n            _role == Role.Doctor &&\r\n            !hasRole[_user]\r\n        ) {\r\n            doctors.push(_user);\r\n        } else if (\r\n            roles[msg.sender] == Role.AdminI &&\r\n            _role == Role.Insurance &&\r\n            !hasRole[_user]\r\n        ) {\r\n            insurances.push(_user);\r\n        } else {\r\n            revert(\r\n                \"Unauthorized: sender cannot assign roles or role already assigned\"\r\n            );\r\n        }\r\n        _assignRole(_user, _role);\r\n    }\r\n\r\n    function _assignRole(address _user, Role _role) internal {\r\n        roles[_user] = _role;\r\n        hasRole[_user] = true;\r\n    }\r\n\r\n    function _removeRole(address _user) internal {\r\n        hasRole[_user] = false; // Indicates the user no longer has any active role\r\n    }\r\n\r\n    function performActionAsDoctor() public onlyRole(Role.Doctor) {\r\n        emit ActionPerformed(\"I am doctor\");\r\n    }\r\n\r\n    function performAdminTask() public onlyRole(Role.AdminD) {\r\n        emit ActionPerformed(\"I am adminD\");\r\n    }\r\n\r\n    function performSuperAdminTask()\r\n        public\r\n        view\r\n        onlyRole(Role.SuperAdmin)\r\n        returns (string memory)\r\n    {\r\n        return \"I am super admin\";\r\n    }\r\n\r\n    function removeAddressFromArray(\r\n        address _user,\r\n        address[] storage array\r\n    ) internal {\r\n        for (uint i = 0; i < array.length; i++) {\r\n            if (array[i] == _user) {\r\n                array[i] = array[array.length - 1];\r\n                array.pop();\r\n                break;\r\n            }\r\n        }\r\n    }\r\n\r\n    function removeAdminD(address _user) public onlyRole(Role.SuperAdmin) {\r\n        if (roles[_user] == Role.AdminD) {\r\n            removeAddressFromArray(_user, adminDs);\r\n        }\r\n        _removeRole(_user);\r\n    }\r\n\r\n    function removeAdminI(address _user) public onlyRole(Role.SuperAdmin) {\r\n        if (roles[_user] == Role.AdminI) {\r\n            removeAddressFromArray(_user, adminIs);\r\n        }\r\n        _removeRole(_user);\r\n    }\r\n\r\n    function removeInsurance(address _user) public onlyRole(Role.AdminI) {\r\n        if (roles[_user] == Role.Insurance) {\r\n            removeAddressFromArray(_user, insurances);\r\n        }\r\n        _removeRole(_user);\r\n    }\r\n\r\n    function removeDoctor(address _user) public onlyRole(Role.AdminD) {\r\n        if (roles[_user] == Role.Doctor) {\r\n            removeAddressFromArray(_user, doctors);\r\n        }\r\n        _removeRole(_user);\r\n    }\r\n\r\n    // Generalized function to get CIDs for a list of addresses\r\n    function getCIDsByAddresses(address[] memory addresses) public view returns (string[] memory) {\r\n        string[] memory cids = new string[](addresses.length);\r\n        for (uint i = 0; i < addresses.length; i++) {\r\n            cids[i] = addressToCID[addresses[i]];\r\n        }\r\n        return cids;\r\n    }\r\n\r\n    // Convenience functions to fetch CIDs for specific groups\r\n    function getAllAdminDCIDs() public view returns (string[] memory) {\r\n        return getCIDsByAddresses(adminDs);\r\n    }\r\n\r\n    function getAllAdminICIDs() public view returns (string[] memory) {\r\n        return getCIDsByAddresses(adminIs);\r\n    }\r\n\r\n    function getAllDoctorCIDs() public view returns (string[] memory) {\r\n        return getCIDsByAddresses(doctors);\r\n    }\r\n\r\n    function getAllInsuranceCIDs() public view returns (string[] memory) {\r\n        return getCIDsByAddresses(insurances);\r\n    }\r\n\r\n    function getSuperAdmins() public view returns (address) {\r\n        return superAdmin;\r\n    }\r\n\r\n    function keepIPFSCID(address publicKey, uint8 slot, string memory ipfsCID) public onlyRole(Role.Doctor) {\r\n        require(hasAccess(publicKey, msg.sender), \"Unauthorized: sender does not have a permission\");\r\n        publicKeyToIPFSCIDs[publicKey][slot].push(ipfsCID);\r\n        emit IPFSCIDMapped(publicKey, slot, ipfsCID);\r\n    }\r\n\r\n    function getIPFSCIDsByPublicKeyAndSlot(address publicKey, uint8 slot) public view returns (string[] memory) {\r\n        require(publicKey == msg.sender || hasAccess(publicKey, msg.sender), \"Unauthorized: sender does not have a permission\");\r\n        require(publicKeyToIPFSCIDs[publicKey][slot].length != 0, \"No IPFS CIDs found for this public key\");\r\n        return publicKeyToIPFSCIDs[publicKey][slot];\r\n    }\r\n\r\n    function getLastIPFSCIDsByPublicKeyAndSlot(address publicKey, uint8 slot) public view returns (string memory) {\r\n        require(publicKey == msg.sender || hasAccess(publicKey, msg.sender), \"Unauthorized: sender does not have a permission\");\r\n        require(publicKeyToIPFSCIDs[publicKey][slot].length != 0, \"No IPFS CIDs found for this public key\");\r\n        return publicKeyToIPFSCIDs[publicKey][slot][publicKeyToIPFSCIDs[publicKey][slot].length-1];\r\n    }\r\n\r\n    function requestAccess(address patient) public onlyRole(Role.Doctor) {\r\n        require(patient != msg.sender, \"Cannot request access to yourself\");\r\n\r\n        accessRequests[patient].push(AccessRequest({\r\n            doctor: msg.sender,\r\n            approved: false\r\n        }));\r\n\r\n        emit AccessRequested(patient, msg.sender);\r\n    }\r\n\r\n    function grantAccess(address doctor) public {\r\n        AccessRequest[] storage requests = accessRequests[msg.sender];\r\n        for (uint i = 0; i < requests.length; i++) {\r\n            if (requests[i].doctor == doctor && !requests[i].approved) {\r\n                requests[i].approved = true;\r\n                emit AccessGranted(msg.sender, doctor);\r\n                return;\r\n            }\r\n        }\r\n        revert(\"No access request found for the specified doctor\");\r\n    }\r\n\r\n    function revokeAccess(address doctor) public {\r\n        AccessRequest[] storage requests = accessRequests[msg.sender];\r\n        for (uint i = 0; i < requests.length; i++) {\r\n            if (requests[i].doctor == doctor) {\r\n                requests[i] = requests[requests.length - 1];\r\n                requests.pop();\r\n                emit AccessRevoked(msg.sender, doctor);\r\n                return;\r\n            }\r\n        }\r\n        revert(\"No access request found for the specified doctor\");\r\n    }\r\n\r\n    function hasAccess(address patient, address doctor) public view returns (bool) {\r\n        AccessRequest[] storage requests = accessRequests[patient];\r\n        for (uint i = 0; i < requests.length; i++) {\r\n            if (requests[i].doctor == doctor && requests[i].approved) {\r\n                return true;\r\n            }\r\n        }\r\n        return false;\r\n    }\r\n\r\n    function getAccessRequests() public view returns (AccessRequest[] memory) {\r\n        return accessRequests[msg.sender];\r\n    }\r\n\r\n}\r\n",
  "sourcePath": "C:\\Users\\nowze\\Desktop\\healthcare_api\\contracts\\role.sol",
  "compiler": {
    "name": "solc",
    "version": "0.8.21+commit.d9974bed.Emscripten.clang"
  },
  "schemaVersion": "3.4.16",
  "updatedAt": "2024-07-29T17:10:42.915Z",
  "networkType": "ethereum",
  "devdoc": {
    "kind": "dev",
    "methods": {},
    "version": 1
  },
  "userdoc": {
    "kind": "user",
    "methods": {},
    "version": 1
  }
}